{
    "_format": "hh-sol-artifact-1",
    "contractName": "GallusFeatherNFT",
    "sourceName": "contracts/gallus-feather-NFT.sol",
    "abi": [
        {
            "inputs": [
                {
                    "internalType": "address payable",
                    "name": "_admin",
                    "type": "address"
                },
                {
                    "internalType": "uint256",
                    "name": "default_price",
                    "type": "uint256"
                },
                {
                    "internalType": "string",
                    "name": "_uri",
                    "type": "string"
                }
            ],
            "stateMutability": "nonpayable",
            "type": "constructor"
        },
        {
            "anonymous": false,
            "inputs": [
                {
                    "indexed": true,
                    "internalType": "address",
                    "name": "owner",
                    "type": "address"
                },
                {
                    "indexed": true,
                    "internalType": "address",
                    "name": "approved",
                    "type": "address"
                },
                {
                    "indexed": true,
                    "internalType": "uint256",
                    "name": "tokenId",
                    "type": "uint256"
                }
            ],
            "name": "Approval",
            "type": "event"
        },
        {
            "anonymous": false,
            "inputs": [
                {
                    "indexed": true,
                    "internalType": "address",
                    "name": "owner",
                    "type": "address"
                },
                {
                    "indexed": true,
                    "internalType": "address",
                    "name": "operator",
                    "type": "address"
                },
                {
                    "indexed": false,
                    "internalType": "bool",
                    "name": "approved",
                    "type": "bool"
                }
            ],
            "name": "ApprovalForAll",
            "type": "event"
        },
        {
            "anonymous": false,
            "inputs": [
                {
                    "indexed": false,
                    "internalType": "address",
                    "name": "owner",
                    "type": "address"
                },
                {
                    "indexed": false,
                    "internalType": "uint256",
                    "name": "marketId",
                    "type": "uint256"
                }
            ],
            "name": "Mint",
            "type": "event"
        },
        {
            "anonymous": false,
            "inputs": [
                {
                    "indexed": true,
                    "internalType": "address",
                    "name": "previousOwner",
                    "type": "address"
                },
                {
                    "indexed": true,
                    "internalType": "address",
                    "name": "newOwner",
                    "type": "address"
                }
            ],
            "name": "OwnershipTransferred",
            "type": "event"
        },
        {
            "anonymous": false,
            "inputs": [
                {
                    "indexed": true,
                    "internalType": "address",
                    "name": "from",
                    "type": "address"
                },
                {
                    "indexed": true,
                    "internalType": "address",
                    "name": "to",
                    "type": "address"
                },
                {
                    "indexed": true,
                    "internalType": "uint256",
                    "name": "tokenId",
                    "type": "uint256"
                }
            ],
            "name": "Transfer",
            "type": "event"
        },
        {
            "inputs": [],
            "name": "admin",
            "outputs": [
                {
                    "internalType": "address payable",
                    "name": "",
                    "type": "address"
                }
            ],
            "stateMutability": "view",
            "type": "function"
        },
        {
            "inputs": [
                {
                    "internalType": "address",
                    "name": "to",
                    "type": "address"
                },
                {
                    "internalType": "uint256",
                    "name": "tokenId",
                    "type": "uint256"
                }
            ],
            "name": "approve",
            "outputs": [],
            "stateMutability": "nonpayable",
            "type": "function"
        },
        {
            "inputs": [
                {
                    "internalType": "address",
                    "name": "owner",
                    "type": "address"
                }
            ],
            "name": "balanceOf",
            "outputs": [
                {
                    "internalType": "uint256",
                    "name": "",
                    "type": "uint256"
                }
            ],
            "stateMutability": "view",
            "type": "function"
        },
        {
            "inputs": [],
            "name": "baseTokenURI",
            "outputs": [
                {
                    "internalType": "string",
                    "name": "",
                    "type": "string"
                }
            ],
            "stateMutability": "nonpayable",
            "type": "function"
        },
        {
            "inputs": [],
            "name": "baseURI",
            "outputs": [
                {
                    "internalType": "string",
                    "name": "",
                    "type": "string"
                }
            ],
            "stateMutability": "view",
            "type": "function"
        },
        {
            "inputs": [
                {
                    "internalType": "uint256",
                    "name": "tokenId",
                    "type": "uint256"
                }
            ],
            "name": "getApproved",
            "outputs": [
                {
                    "internalType": "address",
                    "name": "",
                    "type": "address"
                }
            ],
            "stateMutability": "view",
            "type": "function"
        },
        {
            "inputs": [],
            "name": "getPrice",
            "outputs": [
                {
                    "internalType": "uint256",
                    "name": "",
                    "type": "uint256"
                }
            ],
            "stateMutability": "view",
            "type": "function"
        },
        {
            "inputs": [
                {
                    "internalType": "address",
                    "name": "owner",
                    "type": "address"
                },
                {
                    "internalType": "address",
                    "name": "operator",
                    "type": "address"
                }
            ],
            "name": "isApprovedForAll",
            "outputs": [
                {
                    "internalType": "bool",
                    "name": "",
                    "type": "bool"
                }
            ],
            "stateMutability": "view",
            "type": "function"
        },
        {
            "inputs": [],
            "name": "name",
            "outputs": [
                {
                    "internalType": "string",
                    "name": "",
                    "type": "string"
                }
            ],
            "stateMutability": "view",
            "type": "function"
        },
        {
            "inputs": [],
            "name": "owner",
            "outputs": [
                {
                    "internalType": "address",
                    "name": "",
                    "type": "address"
                }
            ],
            "stateMutability": "view",
            "type": "function"
        },
        {
            "inputs": [
                {
                    "internalType": "uint256",
                    "name": "tokenId",
                    "type": "uint256"
                }
            ],
            "name": "ownerOf",
            "outputs": [
                {
                    "internalType": "address",
                    "name": "",
                    "type": "address"
                }
            ],
            "stateMutability": "view",
            "type": "function"
        },
        {
            "inputs": [],
            "name": "purchase",
            "outputs": [],
            "stateMutability": "payable",
            "type": "function"
        },
        {
            "inputs": [],
            "name": "renounceOwnership",
            "outputs": [],
            "stateMutability": "nonpayable",
            "type": "function"
        },
        {
            "inputs": [
                {
                    "internalType": "uint256",
                    "name": "",
                    "type": "uint256"
                },
                {
                    "internalType": "uint256",
                    "name": "salePrice",
                    "type": "uint256"
                }
            ],
            "name": "royaltyInfo",
            "outputs": [
                {
                    "internalType": "address",
                    "name": "",
                    "type": "address"
                },
                {
                    "internalType": "uint256",
                    "name": "",
                    "type": "uint256"
                }
            ],
            "stateMutability": "view",
            "type": "function"
        },
        {
            "inputs": [],
            "name": "royaltyPercentage",
            "outputs": [
                {
                    "internalType": "uint256",
                    "name": "",
                    "type": "uint256"
                }
            ],
            "stateMutability": "view",
            "type": "function"
        },
        {
            "inputs": [],
            "name": "royaltyReceiver",
            "outputs": [
                {
                    "internalType": "address",
                    "name": "",
                    "type": "address"
                }
            ],
            "stateMutability": "view",
            "type": "function"
        },
        {
            "inputs": [
                {
                    "internalType": "address",
                    "name": "from",
                    "type": "address"
                },
                {
                    "internalType": "address",
                    "name": "to",
                    "type": "address"
                },
                {
                    "internalType": "uint256",
                    "name": "tokenId",
                    "type": "uint256"
                }
            ],
            "name": "safeTransferFrom",
            "outputs": [],
            "stateMutability": "nonpayable",
            "type": "function"
        },
        {
            "inputs": [
                {
                    "internalType": "address",
                    "name": "from",
                    "type": "address"
                },
                {
                    "internalType": "address",
                    "name": "to",
                    "type": "address"
                },
                {
                    "internalType": "uint256",
                    "name": "tokenId",
                    "type": "uint256"
                },
                {
                    "internalType": "bytes",
                    "name": "_data",
                    "type": "bytes"
                }
            ],
            "name": "safeTransferFrom",
            "outputs": [],
            "stateMutability": "nonpayable",
            "type": "function"
        },
        {
            "inputs": [
                {
                    "internalType": "address",
                    "name": "operator",
                    "type": "address"
                },
                {
                    "internalType": "bool",
                    "name": "approved",
                    "type": "bool"
                }
            ],
            "name": "setApprovalForAll",
            "outputs": [],
            "stateMutability": "nonpayable",
            "type": "function"
        },
        {
            "inputs": [
                {
                    "internalType": "string",
                    "name": "_newBaseURI",
                    "type": "string"
                }
            ],
            "name": "setBaseURI",
            "outputs": [],
            "stateMutability": "nonpayable",
            "type": "function"
        },
        {
            "inputs": [
                {
                    "internalType": "bytes4",
                    "name": "interfaceId",
                    "type": "bytes4"
                }
            ],
            "name": "supportsInterface",
            "outputs": [
                {
                    "internalType": "bool",
                    "name": "",
                    "type": "bool"
                }
            ],
            "stateMutability": "view",
            "type": "function"
        },
        {
            "inputs": [],
            "name": "symbol",
            "outputs": [
                {
                    "internalType": "string",
                    "name": "",
                    "type": "string"
                }
            ],
            "stateMutability": "view",
            "type": "function"
        },
        {
            "inputs": [
                {
                    "internalType": "uint256",
                    "name": "index",
                    "type": "uint256"
                }
            ],
            "name": "tokenByIndex",
            "outputs": [
                {
                    "internalType": "uint256",
                    "name": "",
                    "type": "uint256"
                }
            ],
            "stateMutability": "view",
            "type": "function"
        },
        {
            "inputs": [
                {
                    "internalType": "address",
                    "name": "owner",
                    "type": "address"
                },
                {
                    "internalType": "uint256",
                    "name": "index",
                    "type": "uint256"
                }
            ],
            "name": "tokenOfOwnerByIndex",
            "outputs": [
                {
                    "internalType": "uint256",
                    "name": "",
                    "type": "uint256"
                }
            ],
            "stateMutability": "view",
            "type": "function"
        },
        {
            "inputs": [
                {
                    "internalType": "uint256",
                    "name": "tokenId",
                    "type": "uint256"
                }
            ],
            "name": "tokenURI",
            "outputs": [
                {
                    "internalType": "string",
                    "name": "",
                    "type": "string"
                }
            ],
            "stateMutability": "view",
            "type": "function"
        },
        {
            "inputs": [],
            "name": "totalSupply",
            "outputs": [
                {
                    "internalType": "uint256",
                    "name": "",
                    "type": "uint256"
                }
            ],
            "stateMutability": "view",
            "type": "function"
        },
        {
            "inputs": [
                {
                    "internalType": "address",
                    "name": "from",
                    "type": "address"
                },
                {
                    "internalType": "address",
                    "name": "to",
                    "type": "address"
                },
                {
                    "internalType": "uint256",
                    "name": "tokenId",
                    "type": "uint256"
                }
            ],
            "name": "transferFrom",
            "outputs": [],
            "stateMutability": "nonpayable",
            "type": "function"
        },
        {
            "inputs": [
                {
                    "internalType": "address",
                    "name": "newOwner",
                    "type": "address"
                }
            ],
            "name": "transferOwnership",
            "outputs": [],
            "stateMutability": "nonpayable",
            "type": "function"
        },
        {
            "inputs": [],
            "name": "withDraw",
            "outputs": [],
            "stateMutability": "nonpayable",
            "type": "function"
        }
    ],
    "bytecode": "0x60806040526001600d553480156200001657600080fd5b506040516200448b3803806200448b83398181016040528101906200003c9190620003dd565b30600a6040518060400160405280601281526020017f47616c6c75732046656174686572204e465400000000000000000000000000008152506040518060400160405280601081526020017f47414c4c5553464541544845524e4654000000000000000000000000000000008152508160009080519060200190620000c392919062000281565b508060019080519060200190620000dc92919062000281565b50505081600a60006101000a81548173ffffffffffffffffffffffffffffffffffffffff021916908373ffffffffffffffffffffffffffffffffffffffff16021790555080600b819055505050620001496200013d620001b360201b60201c565b620001bb60201b60201c565b81600e8190555080600f90805190602001906200016892919062000281565b5082601060006101000a81548173ffffffffffffffffffffffffffffffffffffffff021916908373ffffffffffffffffffffffffffffffffffffffff1602179055505050506200064e565b600033905090565b6000600c60009054906101000a900473ffffffffffffffffffffffffffffffffffffffff16905081600c60006101000a81548173ffffffffffffffffffffffffffffffffffffffff021916908373ffffffffffffffffffffffffffffffffffffffff1602179055508173ffffffffffffffffffffffffffffffffffffffff168173ffffffffffffffffffffffffffffffffffffffff167f8be0079c531659141344cd1fd0a4f28419497f9722a3daafe3b4186f6b6457e060405160405180910390a35050565b8280546200028f906200052b565b90600052602060002090601f016020900481019282620002b35760008555620002ff565b82601f10620002ce57805160ff1916838001178555620002ff565b82800160010185558215620002ff579182015b82811115620002fe578251825591602001919060010190620002e1565b5b5090506200030e919062000312565b5090565b5b808211156200032d57600081600090555060010162000313565b5090565b600062000348620003428462000481565b62000458565b905082815260208101848484011115620003675762000366620005fa565b5b62000374848285620004f5565b509392505050565b6000815190506200038d816200061a565b92915050565b600082601f830112620003ab57620003aa620005f5565b5b8151620003bd84826020860162000331565b91505092915050565b600081519050620003d78162000634565b92915050565b600080600060608486031215620003f957620003f862000604565b5b600062000409868287016200037c565b93505060206200041c86828701620003c6565b925050604084015167ffffffffffffffff81111562000440576200043f620005ff565b5b6200044e8682870162000393565b9150509250925092565b60006200046462000477565b905062000472828262000561565b919050565b6000604051905090565b600067ffffffffffffffff8211156200049f576200049e620005c6565b5b620004aa8262000609565b9050602081019050919050565b6000620004c482620004cb565b9050919050565b600073ffffffffffffffffffffffffffffffffffffffff82169050919050565b6000819050919050565b60005b8381101562000515578082015181840152602081019050620004f8565b8381111562000525576000848401525b50505050565b600060028204905060018216806200054457607f821691505b602082108114156200055b576200055a62000597565b5b50919050565b6200056c8262000609565b810181811067ffffffffffffffff821117156200058e576200058d620005c6565b5b80604052505050565b7f4e487b7100000000000000000000000000000000000000000000000000000000600052602260045260246000fd5b7f4e487b7100000000000000000000000000000000000000000000000000000000600052604160045260246000fd5b600080fd5b600080fd5b600080fd5b600080fd5b6000601f19601f8301169050919050565b6200062581620004b7565b81146200063157600080fd5b50565b6200063f81620004eb565b81146200064b57600080fd5b50565b613e2d806200065e6000396000f3fe6080604052600436106101c25760003560e01c80636c0360eb116100f75780639fbc871311610095578063d547cfb711610064578063d547cfb714610636578063e985e9c514610661578063f2fde38b1461069e578063f851a440146106c7576101c2565b80639fbc87131461057c578063a22cb465146105a7578063b88d4fde146105d0578063c87b56dd146105f9576101c2565b80638a71bb2d116100d15780638a71bb2d146104d05780638da5cb5b146104fb57806395d89b411461052657806398d5fdca14610551576101c2565b80636c0360eb1461045157806370a082311461047c578063715018a6146104b9576101c2565b80632a55205a116101645780634f6ccce71161013e5780634f6ccce7146103a457806355f804b3146103e15780636352211e1461040a57806364edfbf014610447576101c2565b80632a55205a146103005780632f745c591461033e57806342842e0e1461037b576101c2565b8063095ea7b3116101a0578063095ea7b31461026c5780630fdb1c101461029557806318160ddd146102ac57806323b872dd146102d7576101c2565b806301ffc9a7146101c757806306fdde0314610204578063081812fc1461022f575b600080fd5b3480156101d357600080fd5b506101ee60048036038101906101e99190612a89565b6106f2565b6040516101fb9190613062565b60405180910390f35b34801561021057600080fd5b50610219610714565b604051610226919061307d565b60405180910390f35b34801561023b57600080fd5b5061025660048036038101906102519190612b30565b6107a6565b6040516102639190612fb7565b60405180910390f35b34801561027857600080fd5b50610293600480360381019061028e9190612a49565b61082b565b005b3480156102a157600080fd5b506102aa610943565b005b3480156102b857600080fd5b506102c1610971565b6040516102ce919061333f565b60405180910390f35b3480156102e357600080fd5b506102fe60048036038101906102f99190612933565b61097e565b005b34801561030c57600080fd5b5061032760048036038101906103229190612b5d565b6109de565b604051610335929190613039565b60405180910390f35b34801561034a57600080fd5b5061036560048036038101906103609190612a49565b610a29565b604051610372919061333f565b60405180910390f35b34801561038757600080fd5b506103a2600480360381019061039d9190612933565b610ace565b005b3480156103b057600080fd5b506103cb60048036038101906103c69190612b30565b610aee565b6040516103d8919061333f565b60405180910390f35b3480156103ed57600080fd5b5061040860048036038101906104039190612ae3565b610b5f565b005b34801561041657600080fd5b50610431600480360381019061042c9190612b30565b610b75565b60405161043e9190612fb7565b60405180910390f35b61044f610c27565b005b34801561045d57600080fd5b50610466610cd1565b604051610473919061307d565b60405180910390f35b34801561048857600080fd5b506104a3600480360381019061049e91906128c6565b610d5f565b6040516104b0919061333f565b60405180910390f35b3480156104c557600080fd5b506104ce610e17565b005b3480156104dc57600080fd5b506104e5610e9f565b6040516104f2919061333f565b60405180910390f35b34801561050757600080fd5b50610510610ea5565b60405161051d9190612fb7565b60405180910390f35b34801561053257600080fd5b5061053b610ecf565b604051610548919061307d565b60405180910390f35b34801561055d57600080fd5b50610566610f61565b604051610573919061333f565b60405180910390f35b34801561058857600080fd5b50610591610f6b565b60405161059e9190612fb7565b60405180910390f35b3480156105b357600080fd5b506105ce60048036038101906105c99190612a09565b610f91565b005b3480156105dc57600080fd5b506105f760048036038101906105f29190612986565b611112565b005b34801561060557600080fd5b50610620600480360381019061061b9190612b30565b611174565b60405161062d919061307d565b60405180910390f35b34801561064257600080fd5b5061064b61121b565b604051610658919061307d565b60405180910390f35b34801561066d57600080fd5b50610688600480360381019061068391906128f3565b61122a565b6040516106959190613062565b60405180910390f35b3480156106aa57600080fd5b506106c560048036038101906106c091906128c6565b6112be565b005b3480156106d357600080fd5b506106dc6113b6565b6040516106e99190612fd2565b60405180910390f35b60006106fd826113dc565b8061070d575061070c82611456565b5b9050919050565b606060008054610723906135db565b80601f016020809104026020016040519081016040528092919081815260200182805461074f906135db565b801561079c5780601f106107715761010080835404028352916020019161079c565b820191906000526020600020905b81548152906001019060200180831161077f57829003601f168201915b5050505050905090565b60006107b182611528565b6107f0576040517f08c379a00000000000000000000000000000000000000000000000000000000081526004016107e79061323f565b60405180910390fd5b6004600083815260200190815260200160002060009054906101000a900473ffffffffffffffffffffffffffffffffffffffff169050919050565b600061083682610b75565b90508073ffffffffffffffffffffffffffffffffffffffff168373ffffffffffffffffffffffffffffffffffffffff1614156108a7576040517f08c379a000000000000000000000000000000000000000000000000000000000815260040161089e906132bf565b60405180910390fd5b8073ffffffffffffffffffffffffffffffffffffffff166108c6611594565b73ffffffffffffffffffffffffffffffffffffffff1614806108f557506108f4816108ef611594565b61122a565b5b610934576040517f08c379a000000000000000000000000000000000000000000000000000000000815260040161092b906131bf565b60405180910390fd5b61093e838361159c565b505050565b61096f601060009054906101000a900473ffffffffffffffffffffffffffffffffffffffff1647611655565b565b6000600880549050905090565b61098f610989611594565b82611749565b6109ce576040517f08c379a00000000000000000000000000000000000000000000000000000000081526004016109c5906132df565b60405180910390fd5b6109d9838383611827565b505050565b600080600a60009054906101000a900473ffffffffffffffffffffffffffffffffffffffff166064600b5485610a149190613485565b610a1e9190613454565b915091509250929050565b6000610a3483610d5f565b8210610a75576040517f08c379a0000000000000000000000000000000000000000000000000000000008152600401610a6c9061309f565b60405180910390fd5b600660008473ffffffffffffffffffffffffffffffffffffffff1673ffffffffffffffffffffffffffffffffffffffff168152602001908152602001600020600083815260200190815260200160002054905092915050565b610ae983838360405180602001604052806000815250611112565b505050565b6000610af8610971565b8210610b39576040517f08c379a0000000000000000000000000000000000000000000000000000000008152600401610b309061331f565b60405180910390fd5b60088281548110610b4d57610b4c613774565b5b90600052602060002001549050919050565b8181600f9190610b709291906126f4565b505050565b6000806002600084815260200190815260200160002060009054906101000a900473ffffffffffffffffffffffffffffffffffffffff169050600073ffffffffffffffffffffffffffffffffffffffff168173ffffffffffffffffffffffffffffffffffffffff161415610c1e576040517f08c379a0000000000000000000000000000000000000000000000000000000008152600401610c15906131ff565b60405180910390fd5b80915050919050565b610c2f610f61565b3414610c70576040517f08c379a0000000000000000000000000000000000000000000000000000000008152600401610c67906132ff565b60405180910390fd5b610c7c33600d54611a83565b7f0f6798a560793a54c3bcfe86a93cde1e73087d944c0ea20544137d412139688533600d54604051610caf929190613039565b60405180910390a1600d6000815480929190610cca9061363e565b9190505550565b600f8054610cde906135db565b80601f0160208091040260200160405190810160405280929190818152602001828054610d0a906135db565b8015610d575780601f10610d2c57610100808354040283529160200191610d57565b820191906000526020600020905b815481529060010190602001808311610d3a57829003601f168201915b505050505081565b60008073ffffffffffffffffffffffffffffffffffffffff168273ffffffffffffffffffffffffffffffffffffffff161415610dd0576040517f08c379a0000000000000000000000000000000000000000000000000000000008152600401610dc7906131df565b60405180910390fd5b600360008373ffffffffffffffffffffffffffffffffffffffff1673ffffffffffffffffffffffffffffffffffffffff168152602001908152602001600020549050919050565b610e1f611594565b73ffffffffffffffffffffffffffffffffffffffff16610e3d610ea5565b73ffffffffffffffffffffffffffffffffffffffff1614610e93576040517f08c379a0000000000000000000000000000000000000000000000000000000008152600401610e8a9061325f565b60405180910390fd5b610e9d6000611aa1565b565b600b5481565b6000600c60009054906101000a900473ffffffffffffffffffffffffffffffffffffffff16905090565b606060018054610ede906135db565b80601f0160208091040260200160405190810160405280929190818152602001828054610f0a906135db565b8015610f575780601f10610f2c57610100808354040283529160200191610f57565b820191906000526020600020905b815481529060010190602001808311610f3a57829003601f168201915b5050505050905090565b6000600e54905090565b600a60009054906101000a900473ffffffffffffffffffffffffffffffffffffffff1681565b610f99611594565b73ffffffffffffffffffffffffffffffffffffffff168273ffffffffffffffffffffffffffffffffffffffff161415611007576040517f08c379a0000000000000000000000000000000000000000000000000000000008152600401610ffe9061313f565b60405180910390fd5b8060056000611014611594565b73ffffffffffffffffffffffffffffffffffffffff1673ffffffffffffffffffffffffffffffffffffffff16815260200190815260200160002060008473ffffffffffffffffffffffffffffffffffffffff1673ffffffffffffffffffffffffffffffffffffffff16815260200190815260200160002060006101000a81548160ff0219169083151502179055508173ffffffffffffffffffffffffffffffffffffffff166110c1611594565b73ffffffffffffffffffffffffffffffffffffffff167f17307eab39ab6107e8899845ad3d59bd9653f200f220920489ca2b5937696c31836040516111069190613062565b60405180910390a35050565b61112361111d611594565b83611749565b611162576040517f08c379a0000000000000000000000000000000000000000000000000000000008152600401611159906132df565b60405180910390fd5b61116e84848484611b67565b50505050565b606061117f82611528565b6111be576040517f08c379a00000000000000000000000000000000000000000000000000000000081526004016111b59061329f565b60405180910390fd5b60006111c8611bc3565b905060008151116111e85760405180602001604052806000815250611213565b806111f284611c55565b604051602001611203929190612f7e565b6040516020818303038152906040525b915050919050565b6060611225611bc3565b905090565b6000600560008473ffffffffffffffffffffffffffffffffffffffff1673ffffffffffffffffffffffffffffffffffffffff16815260200190815260200160002060008373ffffffffffffffffffffffffffffffffffffffff1673ffffffffffffffffffffffffffffffffffffffff16815260200190815260200160002060009054906101000a900460ff16905092915050565b6112c6611594565b73ffffffffffffffffffffffffffffffffffffffff166112e4610ea5565b73ffffffffffffffffffffffffffffffffffffffff161461133a576040517f08c379a00000000000000000000000000000000000000000000000000000000081526004016113319061325f565b60405180910390fd5b600073ffffffffffffffffffffffffffffffffffffffff168173ffffffffffffffffffffffffffffffffffffffff1614156113aa576040517f08c379a00000000000000000000000000000000000000000000000000000000081526004016113a1906130df565b60405180910390fd5b6113b381611aa1565b50565b601060009054906101000a900473ffffffffffffffffffffffffffffffffffffffff1681565b60007f780e9d63000000000000000000000000000000000000000000000000000000007bffffffffffffffffffffffffffffffffffffffffffffffffffffffff1916827bffffffffffffffffffffffffffffffffffffffffffffffffffffffff1916148061144f575061144e82611db6565b5b9050919050565b60007f01ffc9a7000000000000000000000000000000000000000000000000000000007bffffffffffffffffffffffffffffffffffffffffffffffffffffffff1916827bffffffffffffffffffffffffffffffffffffffffffffffffffffffff1916148061152157507f2a55205a000000000000000000000000000000000000000000000000000000007bffffffffffffffffffffffffffffffffffffffffffffffffffffffff1916827bffffffffffffffffffffffffffffffffffffffffffffffffffffffff1916145b9050919050565b60008073ffffffffffffffffffffffffffffffffffffffff166002600084815260200190815260200160002060009054906101000a900473ffffffffffffffffffffffffffffffffffffffff1673ffffffffffffffffffffffffffffffffffffffff1614159050919050565b600033905090565b816004600083815260200190815260200160002060006101000a81548173ffffffffffffffffffffffffffffffffffffffff021916908373ffffffffffffffffffffffffffffffffffffffff160217905550808273ffffffffffffffffffffffffffffffffffffffff1661160f83610b75565b73ffffffffffffffffffffffffffffffffffffffff167f8c5be1e5ebec7d5bd14f71427d1e84f3dd0314c0f7b2291e5b200ac8c7c3b92560405160405180910390a45050565b80471015611698576040517f08c379a000000000000000000000000000000000000000000000000000000000815260040161168f9061317f565b60405180910390fd5b60008273ffffffffffffffffffffffffffffffffffffffff16826040516116be90612fa2565b60006040518083038185875af1925050503d80600081146116fb576040519150601f19603f3d011682016040523d82523d6000602084013e611700565b606091505b5050905080611744576040517f08c379a000000000000000000000000000000000000000000000000000000000815260040161173b9061315f565b60405180910390fd5b505050565b600061175482611528565b611793576040517f08c379a000000000000000000000000000000000000000000000000000000000815260040161178a9061319f565b60405180910390fd5b600061179e83610b75565b90508073ffffffffffffffffffffffffffffffffffffffff168473ffffffffffffffffffffffffffffffffffffffff16148061180d57508373ffffffffffffffffffffffffffffffffffffffff166117f5846107a6565b73ffffffffffffffffffffffffffffffffffffffff16145b8061181e575061181d818561122a565b5b91505092915050565b8273ffffffffffffffffffffffffffffffffffffffff1661184782610b75565b73ffffffffffffffffffffffffffffffffffffffff161461189d576040517f08c379a00000000000000000000000000000000000000000000000000000000081526004016118949061327f565b60405180910390fd5b600073ffffffffffffffffffffffffffffffffffffffff168273ffffffffffffffffffffffffffffffffffffffff16141561190d576040517f08c379a00000000000000000000000000000000000000000000000000000000081526004016119049061311f565b60405180910390fd5b611918838383611e98565b61192360008261159c565b6001600360008573ffffffffffffffffffffffffffffffffffffffff1673ffffffffffffffffffffffffffffffffffffffff168152602001908152602001600020600082825461197391906134df565b925050819055506001600360008473ffffffffffffffffffffffffffffffffffffffff1673ffffffffffffffffffffffffffffffffffffffff16815260200190815260200160002060008282546119ca91906133fe565b92505081905550816002600083815260200190815260200160002060006101000a81548173ffffffffffffffffffffffffffffffffffffffff021916908373ffffffffffffffffffffffffffffffffffffffff160217905550808273ffffffffffffffffffffffffffffffffffffffff168473ffffffffffffffffffffffffffffffffffffffff167fddf252ad1be2c89b69c2b068fc378daa952ba7f163c4a11628f55a4df523b3ef60405160405180910390a4505050565b611a9d828260405180602001604052806000815250611fac565b5050565b6000600c60009054906101000a900473ffffffffffffffffffffffffffffffffffffffff16905081600c60006101000a81548173ffffffffffffffffffffffffffffffffffffffff021916908373ffffffffffffffffffffffffffffffffffffffff1602179055508173ffffffffffffffffffffffffffffffffffffffff168173ffffffffffffffffffffffffffffffffffffffff167f8be0079c531659141344cd1fd0a4f28419497f9722a3daafe3b4186f6b6457e060405160405180910390a35050565b611b72848484611827565b611b7e84848484612007565b611bbd576040517f08c379a0000000000000000000000000000000000000000000000000000000008152600401611bb4906130bf565b60405180910390fd5b50505050565b6060600f8054611bd2906135db565b80601f0160208091040260200160405190810160405280929190818152602001828054611bfe906135db565b8015611c4b5780601f10611c2057610100808354040283529160200191611c4b565b820191906000526020600020905b815481529060010190602001808311611c2e57829003601f168201915b5050505050905090565b60606000821415611c9d576040518060400160405280600181526020017f30000000000000000000000000000000000000000000000000000000000000008152509050611db1565b600082905060005b60008214611ccf578080611cb89061363e565b915050600a82611cc89190613454565b9150611ca5565b60008167ffffffffffffffff811115611ceb57611cea6137a3565b5b6040519080825280601f01601f191660200182016040528015611d1d5781602001600182028036833780820191505090505b5090505b60008514611daa57600182611d3691906134df565b9150600a85611d459190613687565b6030611d5191906133fe565b60f81b818381518110611d6757611d66613774565b5b60200101907effffffffffffffffffffffffffffffffffffffffffffffffffffffffffffff1916908160001a905350600a85611da39190613454565b9450611d21565b8093505050505b919050565b60007f80ac58cd000000000000000000000000000000000000000000000000000000007bffffffffffffffffffffffffffffffffffffffffffffffffffffffff1916827bffffffffffffffffffffffffffffffffffffffffffffffffffffffff19161480611e8157507f5b5e139f000000000000000000000000000000000000000000000000000000007bffffffffffffffffffffffffffffffffffffffffffffffffffffffff1916827bffffffffffffffffffffffffffffffffffffffffffffffffffffffff1916145b80611e915750611e908261219e565b5b9050919050565b611ea3838383612208565b600073ffffffffffffffffffffffffffffffffffffffff168373ffffffffffffffffffffffffffffffffffffffff161415611ee657611ee18161220d565b611f25565b8173ffffffffffffffffffffffffffffffffffffffff168373ffffffffffffffffffffffffffffffffffffffff1614611f2457611f238382612256565b5b5b600073ffffffffffffffffffffffffffffffffffffffff168273ffffffffffffffffffffffffffffffffffffffff161415611f6857611f63816123c3565b611fa7565b8273ffffffffffffffffffffffffffffffffffffffff168273ffffffffffffffffffffffffffffffffffffffff1614611fa657611fa58282612494565b5b5b505050565b611fb68383612513565b611fc36000848484612007565b612002576040517f08c379a0000000000000000000000000000000000000000000000000000000008152600401611ff9906130bf565b60405180910390fd5b505050565b60006120288473ffffffffffffffffffffffffffffffffffffffff166126e1565b15612191578373ffffffffffffffffffffffffffffffffffffffff1663150b7a02612051611594565b8786866040518563ffffffff1660e01b81526004016120739493929190612fed565b602060405180830381600087803b15801561208d57600080fd5b505af19250505080156120be57506040513d601f19601f820116820180604052508101906120bb9190612ab6565b60015b612141573d80600081146120ee576040519150601f19603f3d011682016040523d82523d6000602084013e6120f3565b606091505b50600081511415612139576040517f08c379a0000000000000000000000000000000000000000000000000000000008152600401612130906130bf565b60405180910390fd5b805181602001fd5b63150b7a0260e01b7bffffffffffffffffffffffffffffffffffffffffffffffffffffffff1916817bffffffffffffffffffffffffffffffffffffffffffffffffffffffff191614915050612196565b600190505b949350505050565b60007f01ffc9a7000000000000000000000000000000000000000000000000000000007bffffffffffffffffffffffffffffffffffffffffffffffffffffffff1916827bffffffffffffffffffffffffffffffffffffffffffffffffffffffff1916149050919050565b505050565b6008805490506009600083815260200190815260200160002081905550600881908060018154018082558091505060019003906000526020600020016000909190919091505550565b6000600161226384610d5f565b61226d91906134df565b9050600060076000848152602001908152602001600020549050818114612352576000600660008673ffffffffffffffffffffffffffffffffffffffff1673ffffffffffffffffffffffffffffffffffffffff168152602001908152602001600020600084815260200190815260200160002054905080600660008773ffffffffffffffffffffffffffffffffffffffff1673ffffffffffffffffffffffffffffffffffffffff168152602001908152602001600020600084815260200190815260200160002081905550816007600083815260200190815260200160002081905550505b6007600084815260200190815260200160002060009055600660008573ffffffffffffffffffffffffffffffffffffffff1673ffffffffffffffffffffffffffffffffffffffff16815260200190815260200160002060008381526020019081526020016000206000905550505050565b600060016008805490506123d791906134df565b905060006009600084815260200190815260200160002054905060006008838154811061240757612406613774565b5b90600052602060002001549050806008838154811061242957612428613774565b5b90600052602060002001819055508160096000838152602001908152602001600020819055506009600085815260200190815260200160002060009055600880548061247857612477613745565b5b6001900381819060005260206000200160009055905550505050565b600061249f83610d5f565b905081600660008573ffffffffffffffffffffffffffffffffffffffff1673ffffffffffffffffffffffffffffffffffffffff168152602001908152602001600020600083815260200190815260200160002081905550806007600084815260200190815260200160002081905550505050565b600073ffffffffffffffffffffffffffffffffffffffff168273ffffffffffffffffffffffffffffffffffffffff161415612583576040517f08c379a000000000000000000000000000000000000000000000000000000000815260040161257a9061321f565b60405180910390fd5b61258c81611528565b156125cc576040517f08c379a00000000000000000000000000000000000000000000000000000000081526004016125c3906130ff565b60405180910390fd5b6125d860008383611e98565b6001600360008473ffffffffffffffffffffffffffffffffffffffff1673ffffffffffffffffffffffffffffffffffffffff168152602001908152602001600020600082825461262891906133fe565b92505081905550816002600083815260200190815260200160002060006101000a81548173ffffffffffffffffffffffffffffffffffffffff021916908373ffffffffffffffffffffffffffffffffffffffff160217905550808273ffffffffffffffffffffffffffffffffffffffff16600073ffffffffffffffffffffffffffffffffffffffff167fddf252ad1be2c89b69c2b068fc378daa952ba7f163c4a11628f55a4df523b3ef60405160405180910390a45050565b600080823b905060008111915050919050565b828054612700906135db565b90600052602060002090601f0160209004810192826127225760008555612769565b82601f1061273b57803560ff1916838001178555612769565b82800160010185558215612769579182015b8281111561276857823582559160200191906001019061274d565b5b509050612776919061277a565b5090565b5b8082111561279357600081600090555060010161277b565b5090565b60006127aa6127a58461337f565b61335a565b9050828152602081018484840111156127c6576127c56137e1565b5b6127d1848285613599565b509392505050565b6000813590506127e881613d9b565b92915050565b6000813590506127fd81613db2565b92915050565b60008135905061281281613dc9565b92915050565b60008151905061282781613dc9565b92915050565b600082601f830112612842576128416137d7565b5b8135612852848260208601612797565b91505092915050565b60008083601f840112612871576128706137d7565b5b8235905067ffffffffffffffff81111561288e5761288d6137d2565b5b6020830191508360018202830111156128aa576128a96137dc565b5b9250929050565b6000813590506128c081613de0565b92915050565b6000602082840312156128dc576128db6137eb565b5b60006128ea848285016127d9565b91505092915050565b6000806040838503121561290a576129096137eb565b5b6000612918858286016127d9565b9250506020612929858286016127d9565b9150509250929050565b60008060006060848603121561294c5761294b6137eb565b5b600061295a868287016127d9565b935050602061296b868287016127d9565b925050604061297c868287016128b1565b9150509250925092565b600080600080608085870312156129a05761299f6137eb565b5b60006129ae878288016127d9565b94505060206129bf878288016127d9565b93505060406129d0878288016128b1565b925050606085013567ffffffffffffffff8111156129f1576129f06137e6565b5b6129fd8782880161282d565b91505092959194509250565b60008060408385031215612a2057612a1f6137eb565b5b6000612a2e858286016127d9565b9250506020612a3f858286016127ee565b9150509250929050565b60008060408385031215612a6057612a5f6137eb565b5b6000612a6e858286016127d9565b9250506020612a7f858286016128b1565b9150509250929050565b600060208284031215612a9f57612a9e6137eb565b5b6000612aad84828501612803565b91505092915050565b600060208284031215612acc57612acb6137eb565b5b6000612ada84828501612818565b91505092915050565b60008060208385031215612afa57612af96137eb565b5b600083013567ffffffffffffffff811115612b1857612b176137e6565b5b612b248582860161285b565b92509250509250929050565b600060208284031215612b4657612b456137eb565b5b6000612b54848285016128b1565b91505092915050565b60008060408385031215612b7457612b736137eb565b5b6000612b82858286016128b1565b9250506020612b93858286016128b1565b9150509250929050565b612ba681613525565b82525050565b612bb581613513565b82525050565b612bc481613537565b82525050565b6000612bd5826133b0565b612bdf81856133c6565b9350612bef8185602086016135a8565b612bf8816137f0565b840191505092915050565b6000612c0e826133bb565b612c1881856133e2565b9350612c288185602086016135a8565b612c31816137f0565b840191505092915050565b6000612c47826133bb565b612c5181856133f3565b9350612c618185602086016135a8565b80840191505092915050565b6000612c7a602b836133e2565b9150612c8582613801565b604082019050919050565b6000612c9d6032836133e2565b9150612ca882613850565b604082019050919050565b6000612cc06026836133e2565b9150612ccb8261389f565b604082019050919050565b6000612ce3601c836133e2565b9150612cee826138ee565b602082019050919050565b6000612d066024836133e2565b9150612d1182613917565b604082019050919050565b6000612d296019836133e2565b9150612d3482613966565b602082019050919050565b6000612d4c603a836133e2565b9150612d578261398f565b604082019050919050565b6000612d6f601d836133e2565b9150612d7a826139de565b602082019050919050565b6000612d92602c836133e2565b9150612d9d82613a07565b604082019050919050565b6000612db56038836133e2565b9150612dc082613a56565b604082019050919050565b6000612dd8602a836133e2565b9150612de382613aa5565b604082019050919050565b6000612dfb6029836133e2565b9150612e0682613af4565b604082019050919050565b6000612e1e6020836133e2565b9150612e2982613b43565b602082019050919050565b6000612e41602c836133e2565b9150612e4c82613b6c565b604082019050919050565b6000612e646020836133e2565b9150612e6f82613bbb565b602082019050919050565b6000612e876029836133e2565b9150612e9282613be4565b604082019050919050565b6000612eaa602f836133e2565b9150612eb582613c33565b604082019050919050565b6000612ecd6021836133e2565b9150612ed882613c82565b604082019050919050565b6000612ef06000836133d7565b9150612efb82613cd1565b600082019050919050565b6000612f136031836133e2565b9150612f1e82613cd4565b604082019050919050565b6000612f366013836133e2565b9150612f4182613d23565b602082019050919050565b6000612f59602c836133e2565b9150612f6482613d4c565b604082019050919050565b612f788161358f565b82525050565b6000612f8a8285612c3c565b9150612f968284612c3c565b91508190509392505050565b6000612fad82612ee3565b9150819050919050565b6000602082019050612fcc6000830184612bac565b92915050565b6000602082019050612fe76000830184612b9d565b92915050565b60006080820190506130026000830187612bac565b61300f6020830186612bac565b61301c6040830185612f6f565b818103606083015261302e8184612bca565b905095945050505050565b600060408201905061304e6000830185612bac565b61305b6020830184612f6f565b9392505050565b60006020820190506130776000830184612bbb565b92915050565b600060208201905081810360008301526130978184612c03565b905092915050565b600060208201905081810360008301526130b881612c6d565b9050919050565b600060208201905081810360008301526130d881612c90565b9050919050565b600060208201905081810360008301526130f881612cb3565b9050919050565b6000602082019050818103600083015261311881612cd6565b9050919050565b6000602082019050818103600083015261313881612cf9565b9050919050565b6000602082019050818103600083015261315881612d1c565b9050919050565b6000602082019050818103600083015261317881612d3f565b9050919050565b6000602082019050818103600083015261319881612d62565b9050919050565b600060208201905081810360008301526131b881612d85565b9050919050565b600060208201905081810360008301526131d881612da8565b9050919050565b600060208201905081810360008301526131f881612dcb565b9050919050565b6000602082019050818103600083015261321881612dee565b9050919050565b6000602082019050818103600083015261323881612e11565b9050919050565b6000602082019050818103600083015261325881612e34565b9050919050565b6000602082019050818103600083015261327881612e57565b9050919050565b6000602082019050818103600083015261329881612e7a565b9050919050565b600060208201905081810360008301526132b881612e9d565b9050919050565b600060208201905081810360008301526132d881612ec0565b9050919050565b600060208201905081810360008301526132f881612f06565b9050919050565b6000602082019050818103600083015261331881612f29565b9050919050565b6000602082019050818103600083015261333881612f4c565b9050919050565b60006020820190506133546000830184612f6f565b92915050565b6000613364613375565b9050613370828261360d565b919050565b6000604051905090565b600067ffffffffffffffff82111561339a576133996137a3565b5b6133a3826137f0565b9050602081019050919050565b600081519050919050565b600081519050919050565b600082825260208201905092915050565b600081905092915050565b600082825260208201905092915050565b600081905092915050565b60006134098261358f565b91506134148361358f565b9250827fffffffffffffffffffffffffffffffffffffffffffffffffffffffffffffffff03821115613449576134486136b8565b5b828201905092915050565b600061345f8261358f565b915061346a8361358f565b92508261347a576134796136e7565b5b828204905092915050565b60006134908261358f565b915061349b8361358f565b9250817fffffffffffffffffffffffffffffffffffffffffffffffffffffffffffffffff04831182151516156134d4576134d36136b8565b5b828202905092915050565b60006134ea8261358f565b91506134f58361358f565b925082821015613508576135076136b8565b5b828203905092915050565b600061351e8261356f565b9050919050565b60006135308261356f565b9050919050565b60008115159050919050565b60007fffffffff0000000000000000000000000000000000000000000000000000000082169050919050565b600073ffffffffffffffffffffffffffffffffffffffff82169050919050565b6000819050919050565b82818337600083830152505050565b60005b838110156135c65780820151818401526020810190506135ab565b838111156135d5576000848401525b50505050565b600060028204905060018216806135f357607f821691505b6020821081141561360757613606613716565b5b50919050565b613616826137f0565b810181811067ffffffffffffffff82111715613635576136346137a3565b5b80604052505050565b60006136498261358f565b91507fffffffffffffffffffffffffffffffffffffffffffffffffffffffffffffffff82141561367c5761367b6136b8565b5b600182019050919050565b60006136928261358f565b915061369d8361358f565b9250826136ad576136ac6136e7565b5b828206905092915050565b7f4e487b7100000000000000000000000000000000000000000000000000000000600052601160045260246000fd5b7f4e487b7100000000000000000000000000000000000000000000000000000000600052601260045260246000fd5b7f4e487b7100000000000000000000000000000000000000000000000000000000600052602260045260246000fd5b7f4e487b7100000000000000000000000000000000000000000000000000000000600052603160045260246000fd5b7f4e487b7100000000000000000000000000000000000000000000000000000000600052603260045260246000fd5b7f4e487b7100000000000000000000000000000000000000000000000000000000600052604160045260246000fd5b600080fd5b600080fd5b600080fd5b600080fd5b600080fd5b600080fd5b6000601f19601f8301169050919050565b7f455243373231456e756d657261626c653a206f776e657220696e646578206f7560008201527f74206f6620626f756e6473000000000000000000000000000000000000000000602082015250565b7f4552433732313a207472616e7366657220746f206e6f6e20455243373231526560008201527f63656976657220696d706c656d656e7465720000000000000000000000000000602082015250565b7f4f776e61626c653a206e6577206f776e657220697320746865207a65726f206160008201527f6464726573730000000000000000000000000000000000000000000000000000602082015250565b7f4552433732313a20746f6b656e20616c7265616479206d696e74656400000000600082015250565b7f4552433732313a207472616e7366657220746f20746865207a65726f2061646460008201527f7265737300000000000000000000000000000000000000000000000000000000602082015250565b7f4552433732313a20617070726f766520746f2063616c6c657200000000000000600082015250565b7f416464726573733a20756e61626c6520746f2073656e642076616c75652c207260008201527f6563697069656e74206d61792068617665207265766572746564000000000000602082015250565b7f416464726573733a20696e73756666696369656e742062616c616e6365000000600082015250565b7f4552433732313a206f70657261746f7220717565727920666f72206e6f6e657860008201527f697374656e7420746f6b656e0000000000000000000000000000000000000000602082015250565b7f4552433732313a20617070726f76652063616c6c6572206973206e6f74206f7760008201527f6e6572206e6f7220617070726f76656420666f7220616c6c0000000000000000602082015250565b7f4552433732313a2062616c616e636520717565727920666f7220746865207a6560008201527f726f206164647265737300000000000000000000000000000000000000000000602082015250565b7f4552433732313a206f776e657220717565727920666f72206e6f6e657869737460008201527f656e7420746f6b656e0000000000000000000000000000000000000000000000602082015250565b7f4552433732313a206d696e7420746f20746865207a65726f2061646472657373600082015250565b7f4552433732313a20617070726f76656420717565727920666f72206e6f6e657860008201527f697374656e7420746f6b656e0000000000000000000000000000000000000000602082015250565b7f4f776e61626c653a2063616c6c6572206973206e6f7420746865206f776e6572600082015250565b7f4552433732313a207472616e73666572206f6620746f6b656e2074686174206960008201527f73206e6f74206f776e0000000000000000000000000000000000000000000000602082015250565b7f4552433732314d657461646174613a2055524920717565727920666f72206e6f60008201527f6e6578697374656e7420746f6b656e0000000000000000000000000000000000602082015250565b7f4552433732313a20617070726f76616c20746f2063757272656e74206f776e6560008201527f7200000000000000000000000000000000000000000000000000000000000000602082015250565b50565b7f4552433732313a207472616e736665722063616c6c6572206973206e6f74206f60008201527f776e6572206e6f7220617070726f766564000000000000000000000000000000602082015250565b7f496e636f72726563742070726963652073657400000000000000000000000000600082015250565b7f455243373231456e756d657261626c653a20676c6f62616c20696e646578206f60008201527f7574206f6620626f756e64730000000000000000000000000000000000000000602082015250565b613da481613513565b8114613daf57600080fd5b50565b613dbb81613537565b8114613dc657600080fd5b50565b613dd281613543565b8114613ddd57600080fd5b50565b613de98161358f565b8114613df457600080fd5b5056fea26469706673582212206b79f42b25cd5f885b185b4f69f595e8bce0289b3111650ac978cd7e1c8dadc764736f6c63430008060033",
    "linkReferences": {},
    "deployedLinkReferences": {}
}