{
  "_format": "hh-sol-artifact-1",
  "contractName": "GallusFeatherNFT",
  "sourceName": "contracts/gallus-feather-NFT.sol",
  "abi": [
    {
      "inputs": [
        {
          "internalType": "address payable",
          "name": "_vault",
          "type": "address"
        },
        {
          "internalType": "uint256",
          "name": "default_price_small",
          "type": "uint256"
        },
        {
          "internalType": "uint256",
          "name": "default_price_medium",
          "type": "uint256"
        },
        {
          "internalType": "uint256",
          "name": "default_price_large",
          "type": "uint256"
        },
        {
          "internalType": "string",
          "name": "_uri",
          "type": "string"
        }
      ],
      "stateMutability": "nonpayable",
      "type": "constructor"
    },
    {
      "anonymous": false,
      "inputs": [
        {
          "indexed": true,
          "internalType": "address",
          "name": "owner",
          "type": "address"
        },
        {
          "indexed": true,
          "internalType": "address",
          "name": "approved",
          "type": "address"
        },
        {
          "indexed": true,
          "internalType": "uint256",
          "name": "tokenId",
          "type": "uint256"
        }
      ],
      "name": "Approval",
      "type": "event"
    },
    {
      "anonymous": false,
      "inputs": [
        {
          "indexed": true,
          "internalType": "address",
          "name": "owner",
          "type": "address"
        },
        {
          "indexed": true,
          "internalType": "address",
          "name": "operator",
          "type": "address"
        },
        {
          "indexed": false,
          "internalType": "bool",
          "name": "approved",
          "type": "bool"
        }
      ],
      "name": "ApprovalForAll",
      "type": "event"
    },
    {
      "anonymous": false,
      "inputs": [
        {
          "indexed": false,
          "internalType": "address",
          "name": "owner",
          "type": "address"
        },
        {
          "indexed": false,
          "internalType": "uint256",
          "name": "marketId",
          "type": "uint256"
        }
      ],
      "name": "Mint",
      "type": "event"
    },
    {
      "anonymous": false,
      "inputs": [
        {
          "indexed": true,
          "internalType": "address",
          "name": "previousOwner",
          "type": "address"
        },
        {
          "indexed": true,
          "internalType": "address",
          "name": "newOwner",
          "type": "address"
        }
      ],
      "name": "OwnershipTransferred",
      "type": "event"
    },
    {
      "anonymous": false,
      "inputs": [
        {
          "indexed": false,
          "internalType": "address",
          "name": "account",
          "type": "address"
        }
      ],
      "name": "Paused",
      "type": "event"
    },
    {
      "anonymous": false,
      "inputs": [
        {
          "indexed": true,
          "internalType": "address",
          "name": "from",
          "type": "address"
        },
        {
          "indexed": true,
          "internalType": "address",
          "name": "to",
          "type": "address"
        },
        {
          "indexed": true,
          "internalType": "uint256",
          "name": "tokenId",
          "type": "uint256"
        }
      ],
      "name": "Transfer",
      "type": "event"
    },
    {
      "anonymous": false,
      "inputs": [
        {
          "indexed": false,
          "internalType": "address",
          "name": "account",
          "type": "address"
        }
      ],
      "name": "Unpaused",
      "type": "event"
    },
    {
      "inputs": [],
      "name": "MAXLARGE",
      "outputs": [
        {
          "internalType": "uint256",
          "name": "",
          "type": "uint256"
        }
      ],
      "stateMutability": "view",
      "type": "function"
    },
    {
      "inputs": [],
      "name": "MAXMEDIUM",
      "outputs": [
        {
          "internalType": "uint256",
          "name": "",
          "type": "uint256"
        }
      ],
      "stateMutability": "view",
      "type": "function"
    },
    {
      "inputs": [],
      "name": "MAXSMALL",
      "outputs": [
        {
          "internalType": "uint256",
          "name": "",
          "type": "uint256"
        }
      ],
      "stateMutability": "view",
      "type": "function"
    },
    {
      "inputs": [
        {
          "internalType": "address",
          "name": "to",
          "type": "address"
        },
        {
          "internalType": "uint256",
          "name": "tokenId",
          "type": "uint256"
        }
      ],
      "name": "approve",
      "outputs": [],
      "stateMutability": "nonpayable",
      "type": "function"
    },
    {
      "inputs": [
        {
          "internalType": "address",
          "name": "owner",
          "type": "address"
        }
      ],
      "name": "balanceOf",
      "outputs": [
        {
          "internalType": "uint256",
          "name": "",
          "type": "uint256"
        }
      ],
      "stateMutability": "view",
      "type": "function"
    },
    {
      "inputs": [],
      "name": "baseTokenURI",
      "outputs": [
        {
          "internalType": "string",
          "name": "",
          "type": "string"
        }
      ],
      "stateMutability": "nonpayable",
      "type": "function"
    },
    {
      "inputs": [],
      "name": "baseURI",
      "outputs": [
        {
          "internalType": "string",
          "name": "",
          "type": "string"
        }
      ],
      "stateMutability": "view",
      "type": "function"
    },
    {
      "inputs": [
        {
          "internalType": "uint256",
          "name": "tokenId",
          "type": "uint256"
        }
      ],
      "name": "getApproved",
      "outputs": [
        {
          "internalType": "address",
          "name": "",
          "type": "address"
        }
      ],
      "stateMutability": "view",
      "type": "function"
    },
    {
      "inputs": [],
      "name": "getPriceLarge",
      "outputs": [
        {
          "internalType": "uint256",
          "name": "",
          "type": "uint256"
        }
      ],
      "stateMutability": "view",
      "type": "function"
    },
    {
      "inputs": [],
      "name": "getPriceMedium",
      "outputs": [
        {
          "internalType": "uint256",
          "name": "",
          "type": "uint256"
        }
      ],
      "stateMutability": "view",
      "type": "function"
    },
    {
      "inputs": [],
      "name": "getPriceSmall",
      "outputs": [
        {
          "internalType": "uint256",
          "name": "",
          "type": "uint256"
        }
      ],
      "stateMutability": "view",
      "type": "function"
    },
    {
      "inputs": [
        {
          "internalType": "address",
          "name": "owner",
          "type": "address"
        },
        {
          "internalType": "address",
          "name": "operator",
          "type": "address"
        }
      ],
      "name": "isApprovedForAll",
      "outputs": [
        {
          "internalType": "bool",
          "name": "",
          "type": "bool"
        }
      ],
      "stateMutability": "view",
      "type": "function"
    },
    {
      "inputs": [],
      "name": "name",
      "outputs": [
        {
          "internalType": "string",
          "name": "",
          "type": "string"
        }
      ],
      "stateMutability": "view",
      "type": "function"
    },
    {
      "inputs": [],
      "name": "owner",
      "outputs": [
        {
          "internalType": "address",
          "name": "",
          "type": "address"
        }
      ],
      "stateMutability": "view",
      "type": "function"
    },
    {
      "inputs": [
        {
          "internalType": "uint256",
          "name": "tokenId",
          "type": "uint256"
        }
      ],
      "name": "ownerOf",
      "outputs": [
        {
          "internalType": "address",
          "name": "",
          "type": "address"
        }
      ],
      "stateMutability": "view",
      "type": "function"
    },
    {
      "inputs": [],
      "name": "pauseSale",
      "outputs": [],
      "stateMutability": "nonpayable",
      "type": "function"
    },
    {
      "inputs": [],
      "name": "paused",
      "outputs": [
        {
          "internalType": "bool",
          "name": "",
          "type": "bool"
        }
      ],
      "stateMutability": "view",
      "type": "function"
    },
    {
      "inputs": [],
      "name": "purchaseLarge",
      "outputs": [],
      "stateMutability": "payable",
      "type": "function"
    },
    {
      "inputs": [],
      "name": "purchaseMedium",
      "outputs": [],
      "stateMutability": "payable",
      "type": "function"
    },
    {
      "inputs": [],
      "name": "purchaseSmall",
      "outputs": [],
      "stateMutability": "payable",
      "type": "function"
    },
    {
      "inputs": [],
      "name": "remainingLarge",
      "outputs": [
        {
          "internalType": "uint256",
          "name": "",
          "type": "uint256"
        }
      ],
      "stateMutability": "view",
      "type": "function"
    },
    {
      "inputs": [],
      "name": "remainingMedium",
      "outputs": [
        {
          "internalType": "uint256",
          "name": "",
          "type": "uint256"
        }
      ],
      "stateMutability": "view",
      "type": "function"
    },
    {
      "inputs": [],
      "name": "remainingSmall",
      "outputs": [
        {
          "internalType": "uint256",
          "name": "",
          "type": "uint256"
        }
      ],
      "stateMutability": "view",
      "type": "function"
    },
    {
      "inputs": [],
      "name": "renounceOwnership",
      "outputs": [],
      "stateMutability": "nonpayable",
      "type": "function"
    },
    {
      "inputs": [
        {
          "internalType": "address",
          "name": "from",
          "type": "address"
        },
        {
          "internalType": "address",
          "name": "to",
          "type": "address"
        },
        {
          "internalType": "uint256",
          "name": "tokenId",
          "type": "uint256"
        }
      ],
      "name": "safeTransferFrom",
      "outputs": [],
      "stateMutability": "nonpayable",
      "type": "function"
    },
    {
      "inputs": [
        {
          "internalType": "address",
          "name": "from",
          "type": "address"
        },
        {
          "internalType": "address",
          "name": "to",
          "type": "address"
        },
        {
          "internalType": "uint256",
          "name": "tokenId",
          "type": "uint256"
        },
        {
          "internalType": "bytes",
          "name": "_data",
          "type": "bytes"
        }
      ],
      "name": "safeTransferFrom",
      "outputs": [],
      "stateMutability": "nonpayable",
      "type": "function"
    },
    {
      "inputs": [
        {
          "internalType": "address",
          "name": "operator",
          "type": "address"
        },
        {
          "internalType": "bool",
          "name": "approved",
          "type": "bool"
        }
      ],
      "name": "setApprovalForAll",
      "outputs": [],
      "stateMutability": "nonpayable",
      "type": "function"
    },
    {
      "inputs": [
        {
          "internalType": "string",
          "name": "_newBaseURI",
          "type": "string"
        }
      ],
      "name": "setBaseURI",
      "outputs": [],
      "stateMutability": "nonpayable",
      "type": "function"
    },
    {
      "inputs": [
        {
          "internalType": "uint256",
          "name": "_newPrice",
          "type": "uint256"
        }
      ],
      "name": "setPriceLarge",
      "outputs": [],
      "stateMutability": "nonpayable",
      "type": "function"
    },
    {
      "inputs": [
        {
          "internalType": "uint256",
          "name": "_newPrice",
          "type": "uint256"
        }
      ],
      "name": "setPriceMedium",
      "outputs": [],
      "stateMutability": "nonpayable",
      "type": "function"
    },
    {
      "inputs": [
        {
          "internalType": "uint256",
          "name": "_newPrice",
          "type": "uint256"
        }
      ],
      "name": "setPriceSmall",
      "outputs": [],
      "stateMutability": "nonpayable",
      "type": "function"
    },
    {
      "inputs": [],
      "name": "startSale",
      "outputs": [],
      "stateMutability": "nonpayable",
      "type": "function"
    },
    {
      "inputs": [
        {
          "internalType": "bytes4",
          "name": "interfaceId",
          "type": "bytes4"
        }
      ],
      "name": "supportsInterface",
      "outputs": [
        {
          "internalType": "bool",
          "name": "",
          "type": "bool"
        }
      ],
      "stateMutability": "view",
      "type": "function"
    },
    {
      "inputs": [],
      "name": "symbol",
      "outputs": [
        {
          "internalType": "string",
          "name": "",
          "type": "string"
        }
      ],
      "stateMutability": "view",
      "type": "function"
    },
    {
      "inputs": [
        {
          "internalType": "uint256",
          "name": "index",
          "type": "uint256"
        }
      ],
      "name": "tokenByIndex",
      "outputs": [
        {
          "internalType": "uint256",
          "name": "",
          "type": "uint256"
        }
      ],
      "stateMutability": "view",
      "type": "function"
    },
    {
      "inputs": [
        {
          "internalType": "address",
          "name": "owner",
          "type": "address"
        },
        {
          "internalType": "uint256",
          "name": "index",
          "type": "uint256"
        }
      ],
      "name": "tokenOfOwnerByIndex",
      "outputs": [
        {
          "internalType": "uint256",
          "name": "",
          "type": "uint256"
        }
      ],
      "stateMutability": "view",
      "type": "function"
    },
    {
      "inputs": [
        {
          "internalType": "uint256",
          "name": "tokenId",
          "type": "uint256"
        }
      ],
      "name": "tokenURI",
      "outputs": [
        {
          "internalType": "string",
          "name": "",
          "type": "string"
        }
      ],
      "stateMutability": "view",
      "type": "function"
    },
    {
      "inputs": [],
      "name": "totalSupply",
      "outputs": [
        {
          "internalType": "uint256",
          "name": "",
          "type": "uint256"
        }
      ],
      "stateMutability": "view",
      "type": "function"
    },
    {
      "inputs": [
        {
          "internalType": "address",
          "name": "from",
          "type": "address"
        },
        {
          "internalType": "address",
          "name": "to",
          "type": "address"
        },
        {
          "internalType": "uint256",
          "name": "tokenId",
          "type": "uint256"
        }
      ],
      "name": "transferFrom",
      "outputs": [],
      "stateMutability": "nonpayable",
      "type": "function"
    },
    {
      "inputs": [
        {
          "internalType": "address",
          "name": "newOwner",
          "type": "address"
        }
      ],
      "name": "transferOwnership",
      "outputs": [],
      "stateMutability": "nonpayable",
      "type": "function"
    },
    {
      "inputs": [
        {
          "internalType": "address",
          "name": "_vault",
          "type": "address"
        }
      ],
      "name": "updateVaultAddress",
      "outputs": [],
      "stateMutability": "nonpayable",
      "type": "function"
    },
    {
      "inputs": [],
      "name": "vault",
      "outputs": [
        {
          "internalType": "address payable",
          "name": "",
          "type": "address"
        }
      ],
      "stateMutability": "view",
      "type": "function"
    },
    {
      "inputs": [],
      "name": "withDraw",
      "outputs": [],
      "stateMutability": "nonpayable",
      "type": "function"
    }
  ],
  "bytecode": "0x60806040526001600b556001600c556001600d5561012c601155609660125560146013553480156200003057600080fd5b506040516200517a3803806200517a8339818101604052810190620000569190620004b4565b6040518060400160405280600f81526020017f47616c6c757327204665617468657200000000000000000000000000000000008152506040518060400160405280600781526020017f46454154484552000000000000000000000000000000000000000000000000008152508160009080519060200190620000da92919062000358565b508060019080519060200190620000f392919062000358565b505050620001166200010a620001bb60201b60201c565b620001c360201b60201c565b6000600a60146101000a81548160ff02191690831515021790555083600e8190555082600f819055508160108190555080601490805190602001906200015e92919062000358565b5084601560006101000a81548173ffffffffffffffffffffffffffffffffffffffff021916908373ffffffffffffffffffffffffffffffffffffffff160217905550620001b06200028960201b60201c565b505050505062000816565b600033905090565b6000600a60009054906101000a900473ffffffffffffffffffffffffffffffffffffffff16905081600a60006101000a81548173ffffffffffffffffffffffffffffffffffffffff021916908373ffffffffffffffffffffffffffffffffffffffff1602179055508173ffffffffffffffffffffffffffffffffffffffff168173ffffffffffffffffffffffffffffffffffffffff167f8be0079c531659141344cd1fd0a4f28419497f9722a3daafe3b4186f6b6457e060405160405180910390a35050565b620002996200034160201b60201c565b15620002dc576040517f08c379a0000000000000000000000000000000000000000000000000000000008152600401620002d390620005b0565b60405180910390fd5b6001600a60146101000a81548160ff0219169083151502179055507f62e78cea01bee320cd4e420270b5ea74000d11b0c9f74754ebdbfc544b05a25862000328620001bb60201b60201c565b60405162000337919062000593565b60405180910390a1565b6000600a60149054906101000a900460ff16905090565b8280546200036690620006ca565b90600052602060002090601f0160209004810192826200038a5760008555620003d6565b82601f10620003a557805160ff1916838001178555620003d6565b82800160010185558215620003d6579182015b82811115620003d5578251825591602001919060010190620003b8565b5b509050620003e59190620003e9565b5090565b5b8082111562000404576000816000905550600101620003ea565b5090565b60006200041f6200041984620005fb565b620005d2565b9050828152602081018484840111156200043e576200043d62000799565b5b6200044b84828562000694565b509392505050565b6000815190506200046481620007e2565b92915050565b600082601f83011262000482576200048162000794565b5b81516200049484826020860162000408565b91505092915050565b600081519050620004ae81620007fc565b92915050565b600080600080600060a08688031215620004d357620004d2620007a3565b5b6000620004e38882890162000453565b9550506020620004f6888289016200049d565b945050604062000509888289016200049d565b93505060606200051c888289016200049d565b925050608086015167ffffffffffffffff81111562000540576200053f6200079e565b5b6200054e888289016200046a565b9150509295509295909350565b620005668162000642565b82525050565b60006200057b60108362000631565b91506200058882620007b9565b602082019050919050565b6000602082019050620005aa60008301846200055b565b92915050565b60006020820190508181036000830152620005cb816200056c565b9050919050565b6000620005de620005f1565b9050620005ec828262000700565b919050565b6000604051905090565b600067ffffffffffffffff82111562000619576200061862000765565b5b6200062482620007a8565b9050602081019050919050565b600082825260208201905092915050565b60006200064f826200066a565b9050919050565b600062000663826200066a565b9050919050565b600073ffffffffffffffffffffffffffffffffffffffff82169050919050565b6000819050919050565b60005b83811015620006b457808201518184015260208101905062000697565b83811115620006c4576000848401525b50505050565b60006002820490506001821680620006e357607f821691505b60208210811415620006fa57620006f962000736565b5b50919050565b6200070b82620007a8565b810181811067ffffffffffffffff821117156200072d576200072c62000765565b5b80604052505050565b7f4e487b7100000000000000000000000000000000000000000000000000000000600052602260045260246000fd5b7f4e487b7100000000000000000000000000000000000000000000000000000000600052604160045260246000fd5b600080fd5b600080fd5b600080fd5b600080fd5b6000601f19601f8301169050919050565b7f5061757361626c653a2070617573656400000000000000000000000000000000600082015250565b620007ed8162000656565b8114620007f957600080fd5b50565b62000807816200068a565b81146200081357600080fd5b50565b61495480620008266000396000f3fe60806040526004361061025c5760003560e01c806370a0823111610144578063b88d4fde116100b6578063d547cfb71161007a578063d547cfb714610870578063e3c61b4b1461089b578063e985e9c5146108a5578063f2fde38b146108e2578063f83d76f61461090b578063fbfa77cf146109365761025c565b8063b88d4fde1461078f578063c87b56dd146107b8578063d11eeff6146107f5578063d2de2f851461081e578063d4fdac5f146108475761025c565b80638f94ce58116101085780638f94ce58146106a357806395d89b41146106ce578063a22cb465146106f9578063a523497c14610722578063b45978211461074d578063b66a0e5d146107785761025c565b806370a08231146105d0578063715018a61461060d5780638a1c1871146106245780638da5cb5b1461064f5780638ef2e2791461067a5761025c565b80632f745c59116101dd57806355367ba9116101a157806355367ba9146104f357806355f804b31461050a5780635c975abb146105335780636352211e1461055e57806363b482d11461059b5780636c0360eb146105a55761025c565b80632f745c591461041b57806342842e0e1461045857806346368b29146104815780634f6ccce71461048b57806352720288146104c85761025c565b80630fdb1c10116102245780630fdb1c101461035a57806310295d8d1461037157806318160ddd1461039c57806323b872dd146103c75780632b14a02d146103f05761025c565b806301ffc9a714610261578063034b32b31461029e57806306fdde03146102c9578063081812fc146102f4578063095ea7b314610331575b600080fd5b34801561026d57600080fd5b506102886004803603810190610283919061349a565b610961565b6040516102959190613abf565b60405180910390f35b3480156102aa57600080fd5b506102b36109db565b6040516102c09190613e1c565b60405180910390f35b3480156102d557600080fd5b506102de6109e5565b6040516102eb9190613ada565b60405180910390f35b34801561030057600080fd5b5061031b60048036038101906103169190613541565b610a77565b6040516103289190613a14565b60405180910390f35b34801561033d57600080fd5b506103586004803603810190610353919061345a565b610afc565b005b34801561036657600080fd5b5061036f610c14565b005b34801561037d57600080fd5b50610386610c42565b6040516103939190613e1c565b60405180910390f35b3480156103a857600080fd5b506103b1610c65565b6040516103be9190613e1c565b60405180910390f35b3480156103d357600080fd5b506103ee60048036038101906103e99190613344565b610c72565b005b3480156103fc57600080fd5b50610405610cd2565b6040516104129190613e1c565b60405180910390f35b34801561042757600080fd5b50610442600480360381019061043d919061345a565b610cdc565b60405161044f9190613e1c565b60405180910390f35b34801561046457600080fd5b5061047f600480360381019061047a9190613344565b610d81565b005b610489610da1565b005b34801561049757600080fd5b506104b260048036038101906104ad9190613541565b610eeb565b6040516104bf9190613e1c565b60405180910390f35b3480156104d457600080fd5b506104dd610f5c565b6040516104ea9190613e1c565b60405180910390f35b3480156104ff57600080fd5b50610508610f7f565b005b34801561051657600080fd5b50610531600480360381019061052c91906134f4565b611005565b005b34801561053f57600080fd5b50610548611097565b6040516105559190613abf565b60405180910390f35b34801561056a57600080fd5b5061058560048036038101906105809190613541565b6110ae565b6040516105929190613a14565b60405180910390f35b6105a3611160565b005b3480156105b157600080fd5b506105ba6112aa565b6040516105c79190613ada565b60405180910390f35b3480156105dc57600080fd5b506105f760048036038101906105f291906132d7565b611338565b6040516106049190613e1c565b60405180910390f35b34801561061957600080fd5b506106226113f0565b005b34801561063057600080fd5b50610639611478565b6040516106469190613e1c565b60405180910390f35b34801561065b57600080fd5b5061066461147e565b6040516106719190613a14565b60405180910390f35b34801561068657600080fd5b506106a1600480360381019061069c9190613541565b6114a8565b005b3480156106af57600080fd5b506106b861152e565b6040516106c59190613e1c565b60405180910390f35b3480156106da57600080fd5b506106e3611551565b6040516106f09190613ada565b60405180910390f35b34801561070557600080fd5b50610720600480360381019061071b919061341a565b6115e3565b005b34801561072e57600080fd5b50610737611764565b6040516107449190613e1c565b60405180910390f35b34801561075957600080fd5b5061076261176e565b60405161076f9190613e1c565b60405180910390f35b34801561078457600080fd5b5061078d611774565b005b34801561079b57600080fd5b506107b660048036038101906107b19190613397565b6117fa565b005b3480156107c457600080fd5b506107df60048036038101906107da9190613541565b61185c565b6040516107ec9190613ada565b60405180910390f35b34801561080157600080fd5b5061081c60048036038101906108179190613541565b611903565b005b34801561082a57600080fd5b50610845600480360381019061084091906132d7565b611989565b005b34801561085357600080fd5b5061086e60048036038101906108699190613541565b611a5d565b005b34801561087c57600080fd5b50610885611ae3565b6040516108929190613ada565b60405180910390f35b6108a3611af2565b005b3480156108b157600080fd5b506108cc60048036038101906108c79190613304565b611c3c565b6040516108d99190613abf565b60405180910390f35b3480156108ee57600080fd5b50610909600480360381019061090491906132d7565b611cd0565b005b34801561091757600080fd5b50610920611dc8565b60405161092d9190613e1c565b60405180910390f35b34801561094257600080fd5b5061094b611dce565b6040516109589190613a2f565b60405180910390f35b60007f780e9d63000000000000000000000000000000000000000000000000000000007bffffffffffffffffffffffffffffffffffffffffffffffffffffffff1916827bffffffffffffffffffffffffffffffffffffffffffffffffffffffff191614806109d457506109d382611df4565b5b9050919050565b6000601054905090565b6060600080546109f49061405e565b80601f0160208091040260200160405190810160405280929190818152602001828054610a209061405e565b8015610a6d5780601f10610a4257610100808354040283529160200191610a6d565b820191906000526020600020905b815481529060010190602001808311610a5057829003601f168201915b5050505050905090565b6000610a8282611ed6565b610ac1576040517f08c379a0000000000000000000000000000000000000000000000000000000008152600401610ab890613cdc565b60405180910390fd5b6004600083815260200190815260200160002060009054906101000a900473ffffffffffffffffffffffffffffffffffffffff169050919050565b6000610b07826110ae565b90508073ffffffffffffffffffffffffffffffffffffffff168373ffffffffffffffffffffffffffffffffffffffff161415610b78576040517f08c379a0000000000000000000000000000000000000000000000000000000008152600401610b6f90613d7c565b60405180910390fd5b8073ffffffffffffffffffffffffffffffffffffffff16610b97611f42565b73ffffffffffffffffffffffffffffffffffffffff161480610bc65750610bc581610bc0611f42565b611c3c565b5b610c05576040517f08c379a0000000000000000000000000000000000000000000000000000000008152600401610bfc90613c5c565b60405180910390fd5b610c0f8383611f4a565b505050565b610c40601560009054906101000a900473ffffffffffffffffffffffffffffffffffffffff1647612003565b565b60006001600c54601254610c569190613f62565b610c609190613edb565b905090565b6000600880549050905090565b610c83610c7d611f42565b826120f7565b610cc2576040517f08c379a0000000000000000000000000000000000000000000000000000000008152600401610cb990613d9c565b60405180910390fd5b610ccd8383836121d5565b505050565b6000600f54905090565b6000610ce783611338565b8210610d28576040517f08c379a0000000000000000000000000000000000000000000000000000000008152600401610d1f90613b1c565b60405180910390fd5b600660008473ffffffffffffffffffffffffffffffffffffffff1673ffffffffffffffffffffffffffffffffffffffff168152602001908152602001600020600083815260200190815260200160002054905092915050565b610d9c838383604051806020016040528060008152506117fa565b505050565b610da9611097565b15610de9576040517f08c379a0000000000000000000000000000000000000000000000000000000008152600401610de090613c3c565b60405180910390fd5b610df1610cd2565b3414610e32576040517f08c379a0000000000000000000000000000000000000000000000000000000008152600401610e2990613ddc565b60405180910390fd5b601254600c541115610e79576040517f08c379a0000000000000000000000000000000000000000000000000000000008152600401610e7090613dbc565b60405180910390fd5b60006107d0600c54610e8b9190613edb565b9050610e973382612431565b7f0f6798a560793a54c3bcfe86a93cde1e73087d944c0ea20544137d41213968853382604051610ec8929190613a96565b60405180910390a1600c6000815480929190610ee3906140c1565b919050555050565b6000610ef5610c65565b8210610f36576040517f08c379a0000000000000000000000000000000000000000000000000000000008152600401610f2d90613dfc565b60405180910390fd5b60088281548110610f4a57610f496141f7565b5b90600052602060002001549050919050565b60006001600d54601354610f709190613f62565b610f7a9190613edb565b905090565b610f87611f42565b73ffffffffffffffffffffffffffffffffffffffff16610fa561147e565b73ffffffffffffffffffffffffffffffffffffffff1614610ffb576040517f08c379a0000000000000000000000000000000000000000000000000000000008152600401610ff290613d1c565b60405180910390fd5b61100361244f565b565b61100d611f42565b73ffffffffffffffffffffffffffffffffffffffff1661102b61147e565b73ffffffffffffffffffffffffffffffffffffffff1614611081576040517f08c379a000000000000000000000000000000000000000000000000000000000815260040161107890613d1c565b60405180910390fd5b818160149190611092929190613105565b505050565b6000600a60149054906101000a900460ff16905090565b6000806002600084815260200190815260200160002060009054906101000a900473ffffffffffffffffffffffffffffffffffffffff169050600073ffffffffffffffffffffffffffffffffffffffff168173ffffffffffffffffffffffffffffffffffffffff161415611157576040517f08c379a000000000000000000000000000000000000000000000000000000000815260040161114e90613c9c565b60405180910390fd5b80915050919050565b611168611097565b156111a8576040517f08c379a000000000000000000000000000000000000000000000000000000000815260040161119f90613c3c565b60405180910390fd5b6111b0611764565b34146111f1576040517f08c379a00000000000000000000000000000000000000000000000000000000081526004016111e890613ddc565b60405180910390fd5b601154600b541115611238576040517f08c379a000000000000000000000000000000000000000000000000000000000815260040161122f90613dbc565b60405180910390fd5b60006103e8600b5461124a9190613edb565b90506112563382612431565b7f0f6798a560793a54c3bcfe86a93cde1e73087d944c0ea20544137d41213968853382604051611287929190613a96565b60405180910390a1600b60008154809291906112a2906140c1565b919050555050565b601480546112b79061405e565b80601f01602080910402602001604051908101604052809291908181526020018280546112e39061405e565b80156113305780601f1061130557610100808354040283529160200191611330565b820191906000526020600020905b81548152906001019060200180831161131357829003601f168201915b505050505081565b60008073ffffffffffffffffffffffffffffffffffffffff168273ffffffffffffffffffffffffffffffffffffffff1614156113a9576040517f08c379a00000000000000000000000000000000000000000000000000000000081526004016113a090613c7c565b60405180910390fd5b600360008373ffffffffffffffffffffffffffffffffffffffff1673ffffffffffffffffffffffffffffffffffffffff168152602001908152602001600020549050919050565b6113f8611f42565b73ffffffffffffffffffffffffffffffffffffffff1661141661147e565b73ffffffffffffffffffffffffffffffffffffffff161461146c576040517f08c379a000000000000000000000000000000000000000000000000000000000815260040161146390613d1c565b60405180910390fd5b61147660006124f2565b565b60125481565b6000600a60009054906101000a900473ffffffffffffffffffffffffffffffffffffffff16905090565b6114b0611f42565b73ffffffffffffffffffffffffffffffffffffffff166114ce61147e565b73ffffffffffffffffffffffffffffffffffffffff1614611524576040517f08c379a000000000000000000000000000000000000000000000000000000000815260040161151b90613d1c565b60405180910390fd5b80600e8190555050565b60006001600b546011546115429190613f62565b61154c9190613edb565b905090565b6060600180546115609061405e565b80601f016020809104026020016040519081016040528092919081815260200182805461158c9061405e565b80156115d95780601f106115ae576101008083540402835291602001916115d9565b820191906000526020600020905b8154815290600101906020018083116115bc57829003601f168201915b5050505050905090565b6115eb611f42565b73ffffffffffffffffffffffffffffffffffffffff168273ffffffffffffffffffffffffffffffffffffffff161415611659576040517f08c379a000000000000000000000000000000000000000000000000000000000815260040161165090613bbc565b60405180910390fd5b8060056000611666611f42565b73ffffffffffffffffffffffffffffffffffffffff1673ffffffffffffffffffffffffffffffffffffffff16815260200190815260200160002060008473ffffffffffffffffffffffffffffffffffffffff1673ffffffffffffffffffffffffffffffffffffffff16815260200190815260200160002060006101000a81548160ff0219169083151502179055508173ffffffffffffffffffffffffffffffffffffffff16611713611f42565b73ffffffffffffffffffffffffffffffffffffffff167f17307eab39ab6107e8899845ad3d59bd9653f200f220920489ca2b5937696c31836040516117589190613abf565b60405180910390a35050565b6000600e54905090565b60115481565b61177c611f42565b73ffffffffffffffffffffffffffffffffffffffff1661179a61147e565b73ffffffffffffffffffffffffffffffffffffffff16146117f0576040517f08c379a00000000000000000000000000000000000000000000000000000000081526004016117e790613d1c565b60405180910390fd5b6117f86125b8565b565b61180b611805611f42565b836120f7565b61184a576040517f08c379a000000000000000000000000000000000000000000000000000000000815260040161184190613d9c565b60405180910390fd5b6118568484848461265a565b50505050565b606061186782611ed6565b6118a6576040517f08c379a000000000000000000000000000000000000000000000000000000000815260040161189d90613d5c565b60405180910390fd5b60006118b06126b6565b905060008151116118d057604051806020016040528060008152506118fb565b806118da84612748565b6040516020016118eb9291906139db565b6040516020818303038152906040525b915050919050565b61190b611f42565b73ffffffffffffffffffffffffffffffffffffffff1661192961147e565b73ffffffffffffffffffffffffffffffffffffffff161461197f576040517f08c379a000000000000000000000000000000000000000000000000000000000815260040161197690613d1c565b60405180910390fd5b8060108190555050565b601560009054906101000a900473ffffffffffffffffffffffffffffffffffffffff1673ffffffffffffffffffffffffffffffffffffffff163373ffffffffffffffffffffffffffffffffffffffff1614611a19576040517f08c379a0000000000000000000000000000000000000000000000000000000008152600401611a1090613cfc565b60405180910390fd5b80601560006101000a81548173ffffffffffffffffffffffffffffffffffffffff021916908373ffffffffffffffffffffffffffffffffffffffff16021790555050565b611a65611f42565b73ffffffffffffffffffffffffffffffffffffffff16611a8361147e565b73ffffffffffffffffffffffffffffffffffffffff1614611ad9576040517f08c379a0000000000000000000000000000000000000000000000000000000008152600401611ad090613d1c565b60405180910390fd5b80600f8190555050565b6060611aed6126b6565b905090565b611afa611097565b15611b3a576040517f08c379a0000000000000000000000000000000000000000000000000000000008152600401611b3190613c3c565b60405180910390fd5b611b426109db565b3414611b83576040517f08c379a0000000000000000000000000000000000000000000000000000000008152600401611b7a90613ddc565b60405180910390fd5b601354600d541115611bca576040517f08c379a0000000000000000000000000000000000000000000000000000000008152600401611bc190613dbc565b60405180910390fd5b6000610bb8600d54611bdc9190613edb565b9050611be83382612431565b7f0f6798a560793a54c3bcfe86a93cde1e73087d944c0ea20544137d41213968853382604051611c19929190613a96565b60405180910390a1600d6000815480929190611c34906140c1565b919050555050565b6000600560008473ffffffffffffffffffffffffffffffffffffffff1673ffffffffffffffffffffffffffffffffffffffff16815260200190815260200160002060008373ffffffffffffffffffffffffffffffffffffffff1673ffffffffffffffffffffffffffffffffffffffff16815260200190815260200160002060009054906101000a900460ff16905092915050565b611cd8611f42565b73ffffffffffffffffffffffffffffffffffffffff16611cf661147e565b73ffffffffffffffffffffffffffffffffffffffff1614611d4c576040517f08c379a0000000000000000000000000000000000000000000000000000000008152600401611d4390613d1c565b60405180910390fd5b600073ffffffffffffffffffffffffffffffffffffffff168173ffffffffffffffffffffffffffffffffffffffff161415611dbc576040517f08c379a0000000000000000000000000000000000000000000000000000000008152600401611db390613b5c565b60405180910390fd5b611dc5816124f2565b50565b60135481565b601560009054906101000a900473ffffffffffffffffffffffffffffffffffffffff1681565b60007f80ac58cd000000000000000000000000000000000000000000000000000000007bffffffffffffffffffffffffffffffffffffffffffffffffffffffff1916827bffffffffffffffffffffffffffffffffffffffffffffffffffffffff19161480611ebf57507f5b5e139f000000000000000000000000000000000000000000000000000000007bffffffffffffffffffffffffffffffffffffffffffffffffffffffff1916827bffffffffffffffffffffffffffffffffffffffffffffffffffffffff1916145b80611ecf5750611ece826128a9565b5b9050919050565b60008073ffffffffffffffffffffffffffffffffffffffff166002600084815260200190815260200160002060009054906101000a900473ffffffffffffffffffffffffffffffffffffffff1673ffffffffffffffffffffffffffffffffffffffff1614159050919050565b600033905090565b816004600083815260200190815260200160002060006101000a81548173ffffffffffffffffffffffffffffffffffffffff021916908373ffffffffffffffffffffffffffffffffffffffff160217905550808273ffffffffffffffffffffffffffffffffffffffff16611fbd836110ae565b73ffffffffffffffffffffffffffffffffffffffff167f8c5be1e5ebec7d5bd14f71427d1e84f3dd0314c0f7b2291e5b200ac8c7c3b92560405160405180910390a45050565b80471015612046576040517f08c379a000000000000000000000000000000000000000000000000000000000815260040161203d90613bfc565b60405180910390fd5b60008273ffffffffffffffffffffffffffffffffffffffff168260405161206c906139ff565b60006040518083038185875af1925050503d80600081146120a9576040519150601f19603f3d011682016040523d82523d6000602084013e6120ae565b606091505b50509050806120f2576040517f08c379a00000000000000000000000000000000000000000000000000000000081526004016120e990613bdc565b60405180910390fd5b505050565b600061210282611ed6565b612141576040517f08c379a000000000000000000000000000000000000000000000000000000000815260040161213890613c1c565b60405180910390fd5b600061214c836110ae565b90508073ffffffffffffffffffffffffffffffffffffffff168473ffffffffffffffffffffffffffffffffffffffff1614806121bb57508373ffffffffffffffffffffffffffffffffffffffff166121a384610a77565b73ffffffffffffffffffffffffffffffffffffffff16145b806121cc57506121cb8185611c3c565b5b91505092915050565b8273ffffffffffffffffffffffffffffffffffffffff166121f5826110ae565b73ffffffffffffffffffffffffffffffffffffffff161461224b576040517f08c379a000000000000000000000000000000000000000000000000000000000815260040161224290613d3c565b60405180910390fd5b600073ffffffffffffffffffffffffffffffffffffffff168273ffffffffffffffffffffffffffffffffffffffff1614156122bb576040517f08c379a00000000000000000000000000000000000000000000000000000000081526004016122b290613b9c565b60405180910390fd5b6122c6838383612913565b6122d1600082611f4a565b6001600360008573ffffffffffffffffffffffffffffffffffffffff1673ffffffffffffffffffffffffffffffffffffffff16815260200190815260200160002060008282546123219190613f62565b925050819055506001600360008473ffffffffffffffffffffffffffffffffffffffff1673ffffffffffffffffffffffffffffffffffffffff16815260200190815260200160002060008282546123789190613edb565b92505081905550816002600083815260200190815260200160002060006101000a81548173ffffffffffffffffffffffffffffffffffffffff021916908373ffffffffffffffffffffffffffffffffffffffff160217905550808273ffffffffffffffffffffffffffffffffffffffff168473ffffffffffffffffffffffffffffffffffffffff167fddf252ad1be2c89b69c2b068fc378daa952ba7f163c4a11628f55a4df523b3ef60405160405180910390a4505050565b61244b828260405180602001604052806000815250612a27565b5050565b612457611097565b15612497576040517f08c379a000000000000000000000000000000000000000000000000000000000815260040161248e90613c3c565b60405180910390fd5b6001600a60146101000a81548160ff0219169083151502179055507f62e78cea01bee320cd4e420270b5ea74000d11b0c9f74754ebdbfc544b05a2586124db611f42565b6040516124e89190613a14565b60405180910390a1565b6000600a60009054906101000a900473ffffffffffffffffffffffffffffffffffffffff16905081600a60006101000a81548173ffffffffffffffffffffffffffffffffffffffff021916908373ffffffffffffffffffffffffffffffffffffffff1602179055508173ffffffffffffffffffffffffffffffffffffffff168173ffffffffffffffffffffffffffffffffffffffff167f8be0079c531659141344cd1fd0a4f28419497f9722a3daafe3b4186f6b6457e060405160405180910390a35050565b6125c0611097565b6125ff576040517f08c379a00000000000000000000000000000000000000000000000000000000081526004016125f690613afc565b60405180910390fd5b6000600a60146101000a81548160ff0219169083151502179055507f5db9ee0a495bf2e6ff9c91a7834c1ba4fdd244a5e8aa4e537bd38aeae4b073aa612643611f42565b6040516126509190613a14565b60405180910390a1565b6126658484846121d5565b61267184848484612a82565b6126b0576040517f08c379a00000000000000000000000000000000000000000000000000000000081526004016126a790613b3c565b60405180910390fd5b50505050565b6060601480546126c59061405e565b80601f01602080910402602001604051908101604052809291908181526020018280546126f19061405e565b801561273e5780601f106127135761010080835404028352916020019161273e565b820191906000526020600020905b81548152906001019060200180831161272157829003601f168201915b5050505050905090565b60606000821415612790576040518060400160405280600181526020017f300000000000000000000000000000000000000000000000000000000000000081525090506128a4565b600082905060005b600082146127c25780806127ab906140c1565b915050600a826127bb9190613f31565b9150612798565b60008167ffffffffffffffff8111156127de576127dd614226565b5b6040519080825280601f01601f1916602001820160405280156128105781602001600182028036833780820191505090505b5090505b6000851461289d576001826128299190613f62565b9150600a85612838919061410a565b60306128449190613edb565b60f81b81838151811061285a576128596141f7565b5b60200101907effffffffffffffffffffffffffffffffffffffffffffffffffffffffffffff1916908160001a905350600a856128969190613f31565b9450612814565b8093505050505b919050565b60007f01ffc9a7000000000000000000000000000000000000000000000000000000007bffffffffffffffffffffffffffffffffffffffffffffffffffffffff1916827bffffffffffffffffffffffffffffffffffffffffffffffffffffffff1916149050919050565b61291e838383612c19565b600073ffffffffffffffffffffffffffffffffffffffff168373ffffffffffffffffffffffffffffffffffffffff1614156129615761295c81612c1e565b6129a0565b8173ffffffffffffffffffffffffffffffffffffffff168373ffffffffffffffffffffffffffffffffffffffff161461299f5761299e8382612c67565b5b5b600073ffffffffffffffffffffffffffffffffffffffff168273ffffffffffffffffffffffffffffffffffffffff1614156129e3576129de81612dd4565b612a22565b8273ffffffffffffffffffffffffffffffffffffffff168273ffffffffffffffffffffffffffffffffffffffff1614612a2157612a208282612ea5565b5b5b505050565b612a318383612f24565b612a3e6000848484612a82565b612a7d576040517f08c379a0000000000000000000000000000000000000000000000000000000008152600401612a7490613b3c565b60405180910390fd5b505050565b6000612aa38473ffffffffffffffffffffffffffffffffffffffff166130f2565b15612c0c578373ffffffffffffffffffffffffffffffffffffffff1663150b7a02612acc611f42565b8786866040518563ffffffff1660e01b8152600401612aee9493929190613a4a565b602060405180830381600087803b158015612b0857600080fd5b505af1925050508015612b3957506040513d601f19601f82011682018060405250810190612b3691906134c7565b60015b612bbc573d8060008114612b69576040519150601f19603f3d011682016040523d82523d6000602084013e612b6e565b606091505b50600081511415612bb4576040517f08c379a0000000000000000000000000000000000000000000000000000000008152600401612bab90613b3c565b60405180910390fd5b805181602001fd5b63150b7a0260e01b7bffffffffffffffffffffffffffffffffffffffffffffffffffffffff1916817bffffffffffffffffffffffffffffffffffffffffffffffffffffffff191614915050612c11565b600190505b949350505050565b505050565b6008805490506009600083815260200190815260200160002081905550600881908060018154018082558091505060019003906000526020600020016000909190919091505550565b60006001612c7484611338565b612c7e9190613f62565b9050600060076000848152602001908152602001600020549050818114612d63576000600660008673ffffffffffffffffffffffffffffffffffffffff1673ffffffffffffffffffffffffffffffffffffffff168152602001908152602001600020600084815260200190815260200160002054905080600660008773ffffffffffffffffffffffffffffffffffffffff1673ffffffffffffffffffffffffffffffffffffffff168152602001908152602001600020600084815260200190815260200160002081905550816007600083815260200190815260200160002081905550505b6007600084815260200190815260200160002060009055600660008573ffffffffffffffffffffffffffffffffffffffff1673ffffffffffffffffffffffffffffffffffffffff16815260200190815260200160002060008381526020019081526020016000206000905550505050565b60006001600880549050612de89190613f62565b9050600060096000848152602001908152602001600020549050600060088381548110612e1857612e176141f7565b5b906000526020600020015490508060088381548110612e3a57612e396141f7565b5b906000526020600020018190555081600960008381526020019081526020016000208190555060096000858152602001908152602001600020600090556008805480612e8957612e886141c8565b5b6001900381819060005260206000200160009055905550505050565b6000612eb083611338565b905081600660008573ffffffffffffffffffffffffffffffffffffffff1673ffffffffffffffffffffffffffffffffffffffff168152602001908152602001600020600083815260200190815260200160002081905550806007600084815260200190815260200160002081905550505050565b600073ffffffffffffffffffffffffffffffffffffffff168273ffffffffffffffffffffffffffffffffffffffff161415612f94576040517f08c379a0000000000000000000000000000000000000000000000000000000008152600401612f8b90613cbc565b60405180910390fd5b612f9d81611ed6565b15612fdd576040517f08c379a0000000000000000000000000000000000000000000000000000000008152600401612fd490613b7c565b60405180910390fd5b612fe960008383612913565b6001600360008473ffffffffffffffffffffffffffffffffffffffff1673ffffffffffffffffffffffffffffffffffffffff16815260200190815260200160002060008282546130399190613edb565b92505081905550816002600083815260200190815260200160002060006101000a81548173ffffffffffffffffffffffffffffffffffffffff021916908373ffffffffffffffffffffffffffffffffffffffff160217905550808273ffffffffffffffffffffffffffffffffffffffff16600073ffffffffffffffffffffffffffffffffffffffff167fddf252ad1be2c89b69c2b068fc378daa952ba7f163c4a11628f55a4df523b3ef60405160405180910390a45050565b600080823b905060008111915050919050565b8280546131119061405e565b90600052602060002090601f016020900481019282613133576000855561317a565b82601f1061314c57803560ff191683800117855561317a565b8280016001018555821561317a579182015b8281111561317957823582559160200191906001019061315e565b5b509050613187919061318b565b5090565b5b808211156131a457600081600090555060010161318c565b5090565b60006131bb6131b684613e5c565b613e37565b9050828152602081018484840111156131d7576131d6614264565b5b6131e284828561401c565b509392505050565b6000813590506131f9816148c2565b92915050565b60008135905061320e816148d9565b92915050565b600081359050613223816148f0565b92915050565b600081519050613238816148f0565b92915050565b600082601f8301126132535761325261425a565b5b81356132638482602086016131a8565b91505092915050565b60008083601f8401126132825761328161425a565b5b8235905067ffffffffffffffff81111561329f5761329e614255565b5b6020830191508360018202830111156132bb576132ba61425f565b5b9250929050565b6000813590506132d181614907565b92915050565b6000602082840312156132ed576132ec61426e565b5b60006132fb848285016131ea565b91505092915050565b6000806040838503121561331b5761331a61426e565b5b6000613329858286016131ea565b925050602061333a858286016131ea565b9150509250929050565b60008060006060848603121561335d5761335c61426e565b5b600061336b868287016131ea565b935050602061337c868287016131ea565b925050604061338d868287016132c2565b9150509250925092565b600080600080608085870312156133b1576133b061426e565b5b60006133bf878288016131ea565b94505060206133d0878288016131ea565b93505060406133e1878288016132c2565b925050606085013567ffffffffffffffff81111561340257613401614269565b5b61340e8782880161323e565b91505092959194509250565b600080604083850312156134315761343061426e565b5b600061343f858286016131ea565b9250506020613450858286016131ff565b9150509250929050565b600080604083850312156134715761347061426e565b5b600061347f858286016131ea565b9250506020613490858286016132c2565b9150509250929050565b6000602082840312156134b0576134af61426e565b5b60006134be84828501613214565b91505092915050565b6000602082840312156134dd576134dc61426e565b5b60006134eb84828501613229565b91505092915050565b6000806020838503121561350b5761350a61426e565b5b600083013567ffffffffffffffff81111561352957613528614269565b5b6135358582860161326c565b92509250509250929050565b6000602082840312156135575761355661426e565b5b6000613565848285016132c2565b91505092915050565b61357781613fa8565b82525050565b61358681613f96565b82525050565b61359581613fba565b82525050565b60006135a682613e8d565b6135b08185613ea3565b93506135c081856020860161402b565b6135c981614273565b840191505092915050565b60006135df82613e98565b6135e98185613ebf565b93506135f981856020860161402b565b61360281614273565b840191505092915050565b600061361882613e98565b6136228185613ed0565b935061363281856020860161402b565b80840191505092915050565b600061364b601483613ebf565b915061365682614284565b602082019050919050565b600061366e602b83613ebf565b9150613679826142ad565b604082019050919050565b6000613691603283613ebf565b915061369c826142fc565b604082019050919050565b60006136b4602683613ebf565b91506136bf8261434b565b604082019050919050565b60006136d7601c83613ebf565b91506136e28261439a565b602082019050919050565b60006136fa602483613ebf565b9150613705826143c3565b604082019050919050565b600061371d601983613ebf565b915061372882614412565b602082019050919050565b6000613740603a83613ebf565b915061374b8261443b565b604082019050919050565b6000613763601d83613ebf565b915061376e8261448a565b602082019050919050565b6000613786602c83613ebf565b9150613791826144b3565b604082019050919050565b60006137a9601083613ebf565b91506137b482614502565b602082019050919050565b60006137cc603883613ebf565b91506137d78261452b565b604082019050919050565b60006137ef602a83613ebf565b91506137fa8261457a565b604082019050919050565b6000613812602983613ebf565b915061381d826145c9565b604082019050919050565b6000613835602083613ebf565b915061384082614618565b602082019050919050565b6000613858602c83613ebf565b915061386382614641565b604082019050919050565b600061387b601683613ebf565b915061388682614690565b602082019050919050565b600061389e602083613ebf565b91506138a9826146b9565b602082019050919050565b60006138c1602983613ebf565b91506138cc826146e2565b604082019050919050565b60006138e4602f83613ebf565b91506138ef82614731565b604082019050919050565b6000613907602183613ebf565b915061391282614780565b604082019050919050565b600061392a600083613eb4565b9150613935826147cf565b600082019050919050565b600061394d603183613ebf565b9150613958826147d2565b604082019050919050565b6000613970600883613ebf565b915061397b82614821565b602082019050919050565b6000613993601383613ebf565b915061399e8261484a565b602082019050919050565b60006139b6602c83613ebf565b91506139c182614873565b604082019050919050565b6139d581614012565b82525050565b60006139e7828561360d565b91506139f3828461360d565b91508190509392505050565b6000613a0a8261391d565b9150819050919050565b6000602082019050613a29600083018461357d565b92915050565b6000602082019050613a44600083018461356e565b92915050565b6000608082019050613a5f600083018761357d565b613a6c602083018661357d565b613a7960408301856139cc565b8181036060830152613a8b818461359b565b905095945050505050565b6000604082019050613aab600083018561357d565b613ab860208301846139cc565b9392505050565b6000602082019050613ad4600083018461358c565b92915050565b60006020820190508181036000830152613af481846135d4565b905092915050565b60006020820190508181036000830152613b158161363e565b9050919050565b60006020820190508181036000830152613b3581613661565b9050919050565b60006020820190508181036000830152613b5581613684565b9050919050565b60006020820190508181036000830152613b75816136a7565b9050919050565b60006020820190508181036000830152613b95816136ca565b9050919050565b60006020820190508181036000830152613bb5816136ed565b9050919050565b60006020820190508181036000830152613bd581613710565b9050919050565b60006020820190508181036000830152613bf581613733565b9050919050565b60006020820190508181036000830152613c1581613756565b9050919050565b60006020820190508181036000830152613c3581613779565b9050919050565b60006020820190508181036000830152613c558161379c565b9050919050565b60006020820190508181036000830152613c75816137bf565b9050919050565b60006020820190508181036000830152613c95816137e2565b9050919050565b60006020820190508181036000830152613cb581613805565b9050919050565b60006020820190508181036000830152613cd581613828565b9050919050565b60006020820190508181036000830152613cf58161384b565b9050919050565b60006020820190508181036000830152613d158161386e565b9050919050565b60006020820190508181036000830152613d3581613891565b9050919050565b60006020820190508181036000830152613d55816138b4565b9050919050565b60006020820190508181036000830152613d75816138d7565b9050919050565b60006020820190508181036000830152613d95816138fa565b9050919050565b60006020820190508181036000830152613db581613940565b9050919050565b60006020820190508181036000830152613dd581613963565b9050919050565b60006020820190508181036000830152613df581613986565b9050919050565b60006020820190508181036000830152613e15816139a9565b9050919050565b6000602082019050613e3160008301846139cc565b92915050565b6000613e41613e52565b9050613e4d8282614090565b919050565b6000604051905090565b600067ffffffffffffffff821115613e7757613e76614226565b5b613e8082614273565b9050602081019050919050565b600081519050919050565b600081519050919050565b600082825260208201905092915050565b600081905092915050565b600082825260208201905092915050565b600081905092915050565b6000613ee682614012565b9150613ef183614012565b9250827fffffffffffffffffffffffffffffffffffffffffffffffffffffffffffffffff03821115613f2657613f2561413b565b5b828201905092915050565b6000613f3c82614012565b9150613f4783614012565b925082613f5757613f5661416a565b5b828204905092915050565b6000613f6d82614012565b9150613f7883614012565b925082821015613f8b57613f8a61413b565b5b828203905092915050565b6000613fa182613ff2565b9050919050565b6000613fb382613ff2565b9050919050565b60008115159050919050565b60007fffffffff0000000000000000000000000000000000000000000000000000000082169050919050565b600073ffffffffffffffffffffffffffffffffffffffff82169050919050565b6000819050919050565b82818337600083830152505050565b60005b8381101561404957808201518184015260208101905061402e565b83811115614058576000848401525b50505050565b6000600282049050600182168061407657607f821691505b6020821081141561408a57614089614199565b5b50919050565b61409982614273565b810181811067ffffffffffffffff821117156140b8576140b7614226565b5b80604052505050565b60006140cc82614012565b91507fffffffffffffffffffffffffffffffffffffffffffffffffffffffffffffffff8214156140ff576140fe61413b565b5b600182019050919050565b600061411582614012565b915061412083614012565b9250826141305761412f61416a565b5b828206905092915050565b7f4e487b7100000000000000000000000000000000000000000000000000000000600052601160045260246000fd5b7f4e487b7100000000000000000000000000000000000000000000000000000000600052601260045260246000fd5b7f4e487b7100000000000000000000000000000000000000000000000000000000600052602260045260246000fd5b7f4e487b7100000000000000000000000000000000000000000000000000000000600052603160045260246000fd5b7f4e487b7100000000000000000000000000000000000000000000000000000000600052603260045260246000fd5b7f4e487b7100000000000000000000000000000000000000000000000000000000600052604160045260246000fd5b600080fd5b600080fd5b600080fd5b600080fd5b600080fd5b600080fd5b6000601f19601f8301169050919050565b7f5061757361626c653a206e6f7420706175736564000000000000000000000000600082015250565b7f455243373231456e756d657261626c653a206f776e657220696e646578206f7560008201527f74206f6620626f756e6473000000000000000000000000000000000000000000602082015250565b7f4552433732313a207472616e7366657220746f206e6f6e20455243373231526560008201527f63656976657220696d706c656d656e7465720000000000000000000000000000602082015250565b7f4f776e61626c653a206e6577206f776e657220697320746865207a65726f206160008201527f6464726573730000000000000000000000000000000000000000000000000000602082015250565b7f4552433732313a20746f6b656e20616c7265616479206d696e74656400000000600082015250565b7f4552433732313a207472616e7366657220746f20746865207a65726f2061646460008201527f7265737300000000000000000000000000000000000000000000000000000000602082015250565b7f4552433732313a20617070726f766520746f2063616c6c657200000000000000600082015250565b7f416464726573733a20756e61626c6520746f2073656e642076616c75652c207260008201527f6563697069656e74206d61792068617665207265766572746564000000000000602082015250565b7f416464726573733a20696e73756666696369656e742062616c616e6365000000600082015250565b7f4552433732313a206f70657261746f7220717565727920666f72206e6f6e657860008201527f697374656e7420746f6b656e0000000000000000000000000000000000000000602082015250565b7f5061757361626c653a2070617573656400000000000000000000000000000000600082015250565b7f4552433732313a20617070726f76652063616c6c6572206973206e6f74206f7760008201527f6e6572206e6f7220617070726f76656420666f7220616c6c0000000000000000602082015250565b7f4552433732313a2062616c616e636520717565727920666f7220746865207a6560008201527f726f206164647265737300000000000000000000000000000000000000000000602082015250565b7f4552433732313a206f776e657220717565727920666f72206e6f6e657869737460008201527f656e7420746f6b656e0000000000000000000000000000000000000000000000602082015250565b7f4552433732313a206d696e7420746f20746865207a65726f2061646472657373600082015250565b7f4552433732313a20617070726f76656420717565727920666f72206e6f6e657860008201527f697374656e7420746f6b656e0000000000000000000000000000000000000000602082015250565b7f4f6e6c79207661756c742063616e20646f207468617400000000000000000000600082015250565b7f4f776e61626c653a2063616c6c6572206973206e6f7420746865206f776e6572600082015250565b7f4552433732313a207472616e73666572206f6620746f6b656e2074686174206960008201527f73206e6f74206f776e0000000000000000000000000000000000000000000000602082015250565b7f4552433732314d657461646174613a2055524920717565727920666f72206e6f60008201527f6e6578697374656e7420746f6b656e0000000000000000000000000000000000602082015250565b7f4552433732313a20617070726f76616c20746f2063757272656e74206f776e6560008201527f7200000000000000000000000000000000000000000000000000000000000000602082015250565b50565b7f4552433732313a207472616e736665722063616c6c6572206973206e6f74206f60008201527f776e6572206e6f7220617070726f766564000000000000000000000000000000602082015250565b7f536f6c64206f7574000000000000000000000000000000000000000000000000600082015250565b7f496e636f72726563742070726963652073657400000000000000000000000000600082015250565b7f455243373231456e756d657261626c653a20676c6f62616c20696e646578206f60008201527f7574206f6620626f756e64730000000000000000000000000000000000000000602082015250565b6148cb81613f96565b81146148d657600080fd5b50565b6148e281613fba565b81146148ed57600080fd5b50565b6148f981613fc6565b811461490457600080fd5b50565b61491081614012565b811461491b57600080fd5b5056fea264697066735822122041a86b0da4e3e70b0880ab99e15fe0357bc97aee1c472d9c4d3106b9862decd364736f6c63430008060033",
  "linkReferences": {},
  "deployedLinkReferences": {}
}